{"abi":[{"type":"constructor","inputs":[],"stateMutability":"nonpayable"},{"type":"function","name":"bettingClosed","inputs":[{"name":"","type":"bytes32","internalType":"bytes32"}],"outputs":[{"name":"","type":"bool","internalType":"bool"}],"stateMutability":"view"},{"type":"function","name":"bettingFeePercent","inputs":[],"outputs":[{"name":"","type":"uint256","internalType":"uint256"}],"stateMutability":"view"},{"type":"function","name":"claimBettingWinnings","inputs":[{"name":"_gameContract","type":"address","internalType":"address"},{"name":"_gameId","type":"uint256","internalType":"uint256"}],"outputs":[],"stateMutability":"nonpayable"},{"type":"function","name":"emergencyWithdraw","inputs":[],"outputs":[],"stateMutability":"nonpayable"},{"type":"function","name":"enableLastStandBetting","inputs":[{"name":"","type":"uint256","internalType":"uint256"}],"outputs":[],"stateMutability":"nonpayable"},{"type":"function","name":"finalizeGameBetting","inputs":[{"name":"_gameId","type":"uint256","internalType":"uint256"}],"outputs":[],"stateMutability":"nonpayable"},{"type":"function","name":"gameBets","inputs":[{"name":"","type":"bytes32","internalType":"bytes32"},{"name":"","type":"uint256","internalType":"uint256"}],"outputs":[{"name":"bettor","type":"address","internalType":"address"},{"name":"gameId","type":"uint256","internalType":"uint256"},{"name":"predictedWinner","type":"address","internalType":"address"},{"name":"amount","type":"uint256","internalType":"uint256"},{"name":"claimed","type":"bool","internalType":"bool"},{"name":"gameContract","type":"address","internalType":"address"}],"stateMutability":"view"},{"type":"function","name":"getBettingOdds","inputs":[{"name":"_gameContract","type":"address","internalType":"address"},{"name":"_gameId","type":"uint256","internalType":"uint256"},{"name":"_players","type":"address[]","internalType":"address[]"}],"outputs":[{"name":"betAmounts","type":"uint256[]","internalType":"uint256[]"},{"name":"oddPercentages","type":"uint256[]","internalType":"uint256[]"}],"stateMutability":"view"},{"type":"function","name":"getGameBettingInfo","inputs":[{"name":"_gameContract","type":"address","internalType":"address"},{"name":"_gameId","type":"uint256","internalType":"uint256"}],"outputs":[{"name":"totalBetAmount","type":"uint256","internalType":"uint256"},{"name":"numberOfBets","type":"uint256","internalType":"uint256"},{"name":"bettingAllowed","type":"bool","internalType":"bool"}],"stateMutability":"view"},{"type":"function","name":"globalBettingEnabled","inputs":[],"outputs":[{"name":"","type":"bool","internalType":"bool"}],"stateMutability":"view"},{"type":"function","name":"isBettingAllowed","inputs":[{"name":"_gameContract","type":"address","internalType":"address"},{"name":"_gameId","type":"uint256","internalType":"uint256"}],"outputs":[{"name":"","type":"bool","internalType":"bool"}],"stateMutability":"view"},{"type":"function","name":"minimumBet","inputs":[],"outputs":[{"name":"","type":"uint256","internalType":"uint256"}],"stateMutability":"view"},{"type":"function","name":"owner","inputs":[],"outputs":[{"name":"","type":"address","internalType":"address"}],"stateMutability":"view"},{"type":"function","name":"placeBet","inputs":[{"name":"_gameContract","type":"address","internalType":"address"},{"name":"_gameId","type":"uint256","internalType":"uint256"},{"name":"_predictedWinner","type":"address","internalType":"address"}],"outputs":[],"stateMutability":"payable"},{"type":"function","name":"registerGameContract","inputs":[{"name":"_gameContract","type":"address","internalType":"address"}],"outputs":[],"stateMutability":"nonpayable"},{"type":"function","name":"registeredContracts","inputs":[{"name":"","type":"address","internalType":"address"}],"outputs":[{"name":"","type":"bool","internalType":"bool"}],"stateMutability":"view"},{"type":"function","name":"renounceOwnership","inputs":[],"outputs":[],"stateMutability":"nonpayable"},{"type":"function","name":"setBettingFee","inputs":[{"name":"_feePercent","type":"uint256","internalType":"uint256"}],"outputs":[],"stateMutability":"nonpayable"},{"type":"function","name":"setGlobalBettingEnabled","inputs":[{"name":"_enabled","type":"bool","internalType":"bool"}],"outputs":[],"stateMutability":"nonpayable"},{"type":"function","name":"setMinimumBet","inputs":[{"name":"_minimumBet","type":"uint256","internalType":"uint256"}],"outputs":[],"stateMutability":"nonpayable"},{"type":"function","name":"spectatorBalances","inputs":[{"name":"","type":"address","internalType":"address"}],"outputs":[{"name":"","type":"uint256","internalType":"uint256"}],"stateMutability":"view"},{"type":"function","name":"totalBetsOnPlayer","inputs":[{"name":"","type":"bytes32","internalType":"bytes32"},{"name":"","type":"address","internalType":"address"}],"outputs":[{"name":"","type":"uint256","internalType":"uint256"}],"stateMutability":"view"},{"type":"function","name":"totalGameBets","inputs":[{"name":"","type":"bytes32","internalType":"bytes32"}],"outputs":[{"name":"","type":"uint256","internalType":"uint256"}],"stateMutability":"view"},{"type":"function","name":"transferOwnership","inputs":[{"name":"newOwner","type":"address","internalType":"address"}],"outputs":[],"stateMutability":"nonpayable"},{"type":"function","name":"updateLastStandRound","inputs":[{"name":"","type":"uint256","internalType":"uint256"}],"outputs":[],"stateMutability":"nonpayable"},{"type":"function","name":"withdrawSpectatorBalance","inputs":[],"outputs":[],"stateMutability":"nonpayable"},{"type":"event","name":"BetPlaced","inputs":[{"name":"gameContract","type":"address","indexed":true,"internalType":"address"},{"name":"gameId","type":"uint256","indexed":true,"internalType":"uint256"},{"name":"bettor","type":"address","indexed":true,"internalType":"address"},{"name":"amount","type":"uint256","indexed":false,"internalType":"uint256"}],"anonymous":false},{"type":"event","name":"BetsClaimed","inputs":[{"name":"gameContract","type":"address","indexed":true,"internalType":"address"},{"name":"gameId","type":"uint256","indexed":true,"internalType":"uint256"},{"name":"bettor","type":"address","indexed":true,"internalType":"address"},{"name":"winnings","type":"uint256","indexed":false,"internalType":"uint256"}],"anonymous":false},{"type":"event","name":"BettingClosed","inputs":[{"name":"gameContract","type":"address","indexed":true,"internalType":"address"},{"name":"gameId","type":"uint256","indexed":true,"internalType":"uint256"}],"anonymous":false},{"type":"event","name":"OwnershipTransferred","inputs":[{"name":"previousOwner","type":"address","indexed":true,"internalType":"address"},{"name":"newOwner","type":"address","indexed":true,"internalType":"address"}],"anonymous":false},{"type":"error","name":"OwnableInvalidOwner","inputs":[{"name":"owner","type":"address","internalType":"address"}]},{"type":"error","name":"OwnableUnauthorizedAccount","inputs":[{"name":"account","type":"address","internalType":"address"}]},{"type":"error","name":"ReentrancyGuardReentrantCall","inputs":[]}],"bytecode":{"object":"0x60806040526003600855662386f26fc100006009556001600a5f6101000a81548160ff021916908315150217905550348015610039575f5ffd5b503360015f819055505f73ffffffffffffffffffffffffffffffffffffffff168173ffffffffffffffffffffffffffffffffffffffff16036100b2575f6040517f1e4fbdf70000000000000000000000000000000000000000000000000000000081526004016100a991906101c9565b60405180910390fd5b6100c1816100c760201b60201c565b506101e2565b5f60015f9054906101000a900473ffffffffffffffffffffffffffffffffffffffff1690508160015f6101000a81548173ffffffffffffffffffffffffffffffffffffffff021916908373ffffffffffffffffffffffffffffffffffffffff1602179055508173ffffffffffffffffffffffffffffffffffffffff168173ffffffffffffffffffffffffffffffffffffffff167f8be0079c531659141344cd1fd0a4f28419497f9722a3daafe3b4186f6b6457e060405160405180910390a35050565b5f73ffffffffffffffffffffffffffffffffffffffff82169050919050565b5f6101b38261018a565b9050919050565b6101c3816101a9565b82525050565b5f6020820190506101dc5f8301846101ba565b92915050565b612e1e806101ef5f395ff3fe608060405260043610610180575f3560e01c8063aa0ba0de116100d0578063cae38ba211610089578063dbaa96bc11610063578063dbaa96bc1461054c578063dd1d1f9b1461058a578063e6065dbe146105c6578063f2fde38b146105ee57610180565b8063cae38ba2146104cd578063d33a24ec1461050e578063db2e21bc1461053657610180565b8063aa0ba0de146103c2578063ad9d19ee146103d8578063ae6514be14610400578063b6d548d91461042a578063beae191014610467578063c38a8afd146104a357610180565b80638772ae3c1161013d5780639fac2049116101175780639fac2049146102e6578063a06617cd14610322578063a6555fa81461035e578063a87a2ce71461039a57610180565b80638772ae3c146102585780638da5cb5b146102805780639142ee75146102aa57610180565b8063066d4407146101845780632c8b8f44146101ac5780634b48a29f146101d45780634ef6c853146101f0578063715018a614610218578063753b159f1461022e575b5f5ffd5b34801561018f575f5ffd5b506101aa60048036038101906101a59190611dc8565b610616565b005b3480156101b7575f5ffd5b506101d260048036038101906101cd9190611dc8565b6106a2565b005b6101ee60048036038101906101e99190611e4d565b6106f8565b005b3480156101fb575f5ffd5b5061021660048036038101906102119190611dc8565b610c1f565b005b348015610223575f5ffd5b5061022c610cab565b005b348015610239575f5ffd5b50610242610cbe565b60405161024f9190611eac565b60405180910390f35b348015610263575f5ffd5b5061027e60048036038101906102799190611dc8565b610cc4565b005b34801561028b575f5ffd5b50610294610cd6565b6040516102a19190611ed4565b60405180910390f35b3480156102b5575f5ffd5b506102d060048036038101906102cb9190611f20565b610cfe565b6040516102dd9190611eac565b60405180910390f35b3480156102f1575f5ffd5b5061030c60048036038101906103079190611f5e565b610d1e565b6040516103199190611eac565b60405180910390f35b34801561032d575f5ffd5b5061034860048036038101906103439190611f5e565b610d33565b6040516103559190611fa3565b60405180910390f35b348015610369575f5ffd5b50610384600480360381019061037f9190611fbc565b610d50565b6040516103919190611fa3565b60405180910390f35b3480156103a5575f5ffd5b506103c060048036038101906103bb9190611fe7565b610d6d565b005b3480156103cd575f5ffd5b506103d661133a565b005b3480156103e3575f5ffd5b506103fe60048036038101906103f9919061204f565b6114bb565b005b34801561040b575f5ffd5b506104146114df565b6040516104219190611fa3565b60405180910390f35b348015610435575f5ffd5b50610450600480360381019061044b91906121ca565b6114f1565b60405161045e9291906122ed565b60405180910390f35b348015610472575f5ffd5b5061048d60048036038101906104889190611fbc565b6116b4565b60405161049a9190611eac565b60405180910390f35b3480156104ae575f5ffd5b506104b76116c9565b6040516104c49190611eac565b60405180910390f35b3480156104d8575f5ffd5b506104f360048036038101906104ee9190612322565b6116cf565b60405161050596959493929190612360565b60405180910390f35b348015610519575f5ffd5b50610534600480360381019061052f9190611dc8565b61178b565b005b348015610541575f5ffd5b5061054a611892565b005b348015610557575f5ffd5b50610572600480360381019061056d9190611fe7565b61194c565b604051610581939291906123bf565b60405180910390f35b348015610595575f5ffd5b506105b060048036038101906105ab9190611fe7565b61199b565b6040516105bd9190611fa3565b60405180910390f35b3480156105d1575f5ffd5b506105ec60048036038101906105e79190611f5e565b611ad0565b005b3480156105f9575f5ffd5b50610614600480360381019061060f9190611f5e565b611b30565b005b60075f3373ffffffffffffffffffffffffffffffffffffffff1673ffffffffffffffffffffffffffffffffffffffff1681526020019081526020015f205f9054906101000a900460ff1661069f576040517f08c379a00000000000000000000000000000000000000000000000000000000081526004016106969061244e565b60405180910390fd5b50565b6106aa611bb4565b600a8111156106ee576040517f08c379a00000000000000000000000000000000000000000000000000000000081526004016106e5906124b6565b60405180910390fd5b8060088190555050565b610700611c3b565b600954341015610745576040517f08c379a000000000000000000000000000000000000000000000000000000000815260040161073c9061251e565b60405180910390fd5b61074f838361199b565b61078e576040517f08c379a000000000000000000000000000000000000000000000000000000000815260040161078590612586565b60405180910390fd5b5f5f90508373ffffffffffffffffffffffffffffffffffffffff16634d389e78846040518263ffffffff1660e01b81526004016107cb9190611eac565b5f60405180830381865afa92505050801561080857506040513d5f823e3d601f19601f820116820180604052508101906108059190612698565b60015b610847576040517f08c379a000000000000000000000000000000000000000000000000000000000815260040161083e9061279b565b60405180910390fd5b5f5f90505b85518110156108b8578973ffffffffffffffffffffffffffffffffffffffff1686828151811061087f5761087e6127b9565b5b602002602001015173ffffffffffffffffffffffffffffffffffffffff16036108ab57600198506108b8565b808060010191505061084c565b50876108f9576040517f08c379a00000000000000000000000000000000000000000000000000000000081526004016108f090612830565b60405180910390fd5b60028081111561090c5761090b61284e565b5b87600281111561091f5761091e61284e565b5b0361095f576040517f08c379a0000000000000000000000000000000000000000000000000000000008152600401610956906128c5565b60405180910390fd5b505050505050505f6109718585611c7f565b905060025f8281526020019081526020015f206040518060c001604052803373ffffffffffffffffffffffffffffffffffffffff1681526020018681526020018573ffffffffffffffffffffffffffffffffffffffff1681526020013481526020015f151581526020018773ffffffffffffffffffffffffffffffffffffffff16815250908060018154018082558091505060019003905f5260205f2090600502015f909190919091505f820151815f015f6101000a81548173ffffffffffffffffffffffffffffffffffffffff021916908373ffffffffffffffffffffffffffffffffffffffff160217905550602082015181600101556040820151816002015f6101000a81548173ffffffffffffffffffffffffffffffffffffffff021916908373ffffffffffffffffffffffffffffffffffffffff160217905550606082015181600301556080820151816004015f6101000a81548160ff02191690831515021790555060a08201518160040160016101000a81548173ffffffffffffffffffffffffffffffffffffffff021916908373ffffffffffffffffffffffffffffffffffffffff16021790555050503460035f8381526020019081526020015f205f8573ffffffffffffffffffffffffffffffffffffffff1673ffffffffffffffffffffffffffffffffffffffff1681526020019081526020015f205f828254610b7c9190612910565b925050819055503460045f8381526020019081526020015f205f828254610ba39190612910565b925050819055503373ffffffffffffffffffffffffffffffffffffffff16848673ffffffffffffffffffffffffffffffffffffffff167fa5e4ecf255f5cdb09edec7f85137784bf79ba8efe996cd08b175bf116e49fc1e34604051610c089190611eac565b60405180910390a45050610c1a611cb1565b505050565b60075f3373ffffffffffffffffffffffffffffffffffffffff1673ffffffffffffffffffffffffffffffffffffffff1681526020019081526020015f205f9054906101000a900460ff16610ca8576040517f08c379a0000000000000000000000000000000000000000000000000000000008152600401610c9f9061244e565b60405180910390fd5b50565b610cb3611bb4565b610cbc5f611cba565b565b60085481565b610ccc611bb4565b8060098190555050565b5f60015f9054906101000a900473ffffffffffffffffffffffffffffffffffffffff16905090565b6003602052815f5260405f20602052805f5260405f205f91509150505481565b6005602052805f5260405f205f915090505481565b6007602052805f5260405f205f915054906101000a900460ff1681565b6006602052805f5260405f205f915054906101000a900460ff1681565b610d75611c3b565b60075f8373ffffffffffffffffffffffffffffffffffffffff1673ffffffffffffffffffffffffffffffffffffffff1681526020019081526020015f205f9054906101000a900460ff16610dfe576040517f08c379a0000000000000000000000000000000000000000000000000000000008152600401610df59061298d565b60405180910390fd5b5f8273ffffffffffffffffffffffffffffffffffffffff16634d389e78836040518263ffffffff1660e01b8152600401610e389190611eac565b5f60405180830381865afa925050508015610e7557506040513d5f823e3d601f19601f82011682018060405250810190610e729190612698565b60015b610eb4576040517f08c379a0000000000000000000000000000000000000000000000000000000008152600401610eab906129f5565b60405180910390fd5b600280811115610ec757610ec661284e565b5b876002811115610eda57610ed961284e565b5b14610f1a576040517f08c379a0000000000000000000000000000000000000000000000000000000008152600401610f1190612a5d565b60405180910390fd5b5f73ffffffffffffffffffffffffffffffffffffffff168673ffffffffffffffffffffffffffffffffffffffff1603610f88576040517f08c379a0000000000000000000000000000000000000000000000000000000008152600401610f7f90612ac5565b60405180910390fd5b859750505050505050505f5f90505f610fa18585611c7f565b90505f60025f8381526020019081526020015f2090505f5f90505b818054905081101561122e573373ffffffffffffffffffffffffffffffffffffffff16828281548110610ff257610ff16127b9565b5b905f5260205f2090600502015f015f9054906101000a900473ffffffffffffffffffffffffffffffffffffffff1673ffffffffffffffffffffffffffffffffffffffff161480156110af57508473ffffffffffffffffffffffffffffffffffffffff16828281548110611068576110676127b9565b5b905f5260205f2090600502016002015f9054906101000a900473ffffffffffffffffffffffffffffffffffffffff1673ffffffffffffffffffffffffffffffffffffffff16145b80156110e757508181815481106110c9576110c86127b9565b5b905f5260205f2090600502016004015f9054906101000a900460ff16155b15611221576001828281548110611101576111006127b9565b5b905f5260205f2090600502016004015f6101000a81548160ff0219169083151502179055505f60035f8581526020019081526020015f205f8773ffffffffffffffffffffffffffffffffffffffff1673ffffffffffffffffffffffffffffffffffffffff1681526020019081526020015f205490505f81111561121f575f81612710858581548110611196576111956127b9565b5b905f5260205f209060050201600301546111b09190612ae3565b6111ba9190612b51565b90505f606460085460646111ce9190612b81565b60045f8981526020019081526020015f20546111ea9190612ae3565b6111f49190612b51565b905061271082826112059190612ae3565b61120f9190612b51565b8761121a9190612910565b965050505b505b8080600101915050610fbc565b505f8311611271576040517f08c379a000000000000000000000000000000000000000000000000000000000815260040161126890612bfe565b60405180910390fd5b8260055f3373ffffffffffffffffffffffffffffffffffffffff1673ffffffffffffffffffffffffffffffffffffffff1681526020019081526020015f205f8282546112bd9190612910565b925050819055503373ffffffffffffffffffffffffffffffffffffffff16858773ffffffffffffffffffffffffffffffffffffffff167fecb1b66ba5eaed06c053ee50b733be7847ba4193b6c430f6d4f871e04680b1f8866040516113229190611eac565b60405180910390a450505050611336611cb1565b5050565b611342611c3b565b5f60055f3373ffffffffffffffffffffffffffffffffffffffff1673ffffffffffffffffffffffffffffffffffffffff1681526020019081526020015f205490505f81116113c5576040517f08c379a00000000000000000000000000000000000000000000000000000000081526004016113bc90612c66565b60405180910390fd5b5f60055f3373ffffffffffffffffffffffffffffffffffffffff1673ffffffffffffffffffffffffffffffffffffffff1681526020019081526020015f20819055505f3373ffffffffffffffffffffffffffffffffffffffff168260405161142c90612cb1565b5f6040518083038185875af1925050503d805f8114611466576040519150601f19603f3d011682016040523d82523d5f602084013e61146b565b606091505b50509050806114af576040517f08c379a00000000000000000000000000000000000000000000000000000000081526004016114a690612d0f565b60405180910390fd5b50506114b9611cb1565b565b6114c3611bb4565b80600a5f6101000a81548160ff02191690831515021790555050565b600a5f9054906101000a900460ff1681565b606080825167ffffffffffffffff81111561150f5761150e61208e565b5b60405190808252806020026020018201604052801561153d5781602001602082028036833780820191505090505b509150825167ffffffffffffffff81111561155b5761155a61208e565b5b6040519080825280602002602001820160405280156115895781602001602082028036833780820191505090505b5090505f6115978686611c7f565b90505f60045f8381526020019081526020015f205490505f5f90505b85518110156116a95760035f8481526020019081526020015f205f8783815181106115e1576115e06127b9565b5b602002602001015173ffffffffffffffffffffffffffffffffffffffff1673ffffffffffffffffffffffffffffffffffffffff1681526020019081526020015f2054858281518110611636576116356127b9565b5b6020026020010181815250505f82111561169c578160648683815181106116605761165f6127b9565b5b60200260200101516116729190612ae3565b61167c9190612b51565b84828151811061168f5761168e6127b9565b5b6020026020010181815250505b80806001019150506115b3565b505050935093915050565b6004602052805f5260405f205f915090505481565b60095481565b6002602052815f5260405f2081815481106116e8575f80fd5b905f5260205f2090600502015f9150915050805f015f9054906101000a900473ffffffffffffffffffffffffffffffffffffffff1690806001015490806002015f9054906101000a900473ffffffffffffffffffffffffffffffffffffffff1690806003015490806004015f9054906101000a900460ff16908060040160019054906101000a900473ffffffffffffffffffffffffffffffffffffffff16905086565b60075f3373ffffffffffffffffffffffffffffffffffffffff1673ffffffffffffffffffffffffffffffffffffffff1681526020019081526020015f205f9054906101000a900460ff16611814576040517f08c379a000000000000000000000000000000000000000000000000000000000815260040161180b9061244e565b60405180910390fd5b5f61181f3383611c7f565b9050600160065f8381526020019081526020015f205f6101000a81548160ff021916908315150217905550813373ffffffffffffffffffffffffffffffffffffffff167f7e862552fae4c5976e088bfaf592e4defd22b8fdfe40e63b0b4c2053f544015760405160405180910390a35050565b61189a611bb4565b5f6118a3610cd6565b73ffffffffffffffffffffffffffffffffffffffff16476040516118c690612cb1565b5f6040518083038185875af1925050503d805f8114611900576040519150601f19603f3d011682016040523d82523d5f602084013e611905565b606091505b5050905080611949576040517f08c379a000000000000000000000000000000000000000000000000000000000815260040161194090612d0f565b60405180910390fd5b50565b5f5f5f5f61195a8686611c7f565b905060045f8281526020019081526020015f205460025f8381526020019081526020015f208054905061198d888861199b565b935093509350509250925092565b5f600a5f9054906101000a900460ff1615806119fe575060075f8473ffffffffffffffffffffffffffffffffffffffff1673ffffffffffffffffffffffffffffffffffffffff1681526020019081526020015f205f9054906101000a900460ff16155b15611a0b575f9050611aca565b5f611a168484611c7f565b905060065f8281526020019081526020015f205f9054906101000a900460ff1615611a44575f915050611aca565b8373ffffffffffffffffffffffffffffffffffffffff16635f5e3e91846040518263ffffffff1660e01b8152600401611a7d9190611eac565b602060405180830381865afa925050508015611ab757506040513d601f19601f82011682018060405250810190611ab49190612d2d565b60015b611ac4575f915050611aca565b80925050505b92915050565b611ad8611bb4565b600160075f8373ffffffffffffffffffffffffffffffffffffffff1673ffffffffffffffffffffffffffffffffffffffff1681526020019081526020015f205f6101000a81548160ff02191690831515021790555050565b611b38611bb4565b5f73ffffffffffffffffffffffffffffffffffffffff168173ffffffffffffffffffffffffffffffffffffffff1603611ba8575f6040517f1e4fbdf7000000000000000000000000000000000000000000000000000000008152600401611b9f9190611ed4565b60405180910390fd5b611bb181611cba565b50565b611bbc611d7d565b73ffffffffffffffffffffffffffffffffffffffff16611bda610cd6565b73ffffffffffffffffffffffffffffffffffffffff1614611c3957611bfd611d7d565b6040517f118cdaa7000000000000000000000000000000000000000000000000000000008152600401611c309190611ed4565b60405180910390fd5b565b60025f5403611c76576040517f3ee5aeb500000000000000000000000000000000000000000000000000000000815260040160405180910390fd5b60025f81905550565b5f8282604051602001611c93929190612dbd565b60405160208183030381529060405280519060200120905092915050565b60015f81905550565b5f60015f9054906101000a900473ffffffffffffffffffffffffffffffffffffffff1690508160015f6101000a81548173ffffffffffffffffffffffffffffffffffffffff021916908373ffffffffffffffffffffffffffffffffffffffff1602179055508173ffffffffffffffffffffffffffffffffffffffff168173ffffffffffffffffffffffffffffffffffffffff167f8be0079c531659141344cd1fd0a4f28419497f9722a3daafe3b4186f6b6457e060405160405180910390a35050565b5f33905090565b5f604051905090565b5f5ffd5b5f5ffd5b5f819050919050565b611da781611d95565b8114611db1575f5ffd5b50565b5f81359050611dc281611d9e565b92915050565b5f60208284031215611ddd57611ddc611d8d565b5b5f611dea84828501611db4565b91505092915050565b5f73ffffffffffffffffffffffffffffffffffffffff82169050919050565b5f611e1c82611df3565b9050919050565b611e2c81611e12565b8114611e36575f5ffd5b50565b5f81359050611e4781611e23565b92915050565b5f5f5f60608486031215611e6457611e63611d8d565b5b5f611e7186828701611e39565b9350506020611e8286828701611db4565b9250506040611e9386828701611e39565b9150509250925092565b611ea681611d95565b82525050565b5f602082019050611ebf5f830184611e9d565b92915050565b611ece81611e12565b82525050565b5f602082019050611ee75f830184611ec5565b92915050565b5f819050919050565b611eff81611eed565b8114611f09575f5ffd5b50565b5f81359050611f1a81611ef6565b92915050565b5f5f60408385031215611f3657611f35611d8d565b5b5f611f4385828601611f0c565b9250506020611f5485828601611e39565b9150509250929050565b5f60208284031215611f7357611f72611d8d565b5b5f611f8084828501611e39565b91505092915050565b5f8115159050919050565b611f9d81611f89565b82525050565b5f602082019050611fb65f830184611f94565b92915050565b5f60208284031215611fd157611fd0611d8d565b5b5f611fde84828501611f0c565b91505092915050565b5f5f60408385031215611ffd57611ffc611d8d565b5b5f61200a85828601611e39565b925050602061201b85828601611db4565b9150509250929050565b61202e81611f89565b8114612038575f5ffd5b50565b5f8135905061204981612025565b92915050565b5f6020828403121561206457612063611d8d565b5b5f6120718482850161203b565b91505092915050565b5f5ffd5b5f601f19601f8301169050919050565b7f4e487b71000000000000000000000000000000000000000000000000000000005f52604160045260245ffd5b6120c48261207e565b810181811067ffffffffffffffff821117156120e3576120e261208e565b5b80604052505050565b5f6120f5611d84565b905061210182826120bb565b919050565b5f67ffffffffffffffff8211156121205761211f61208e565b5b602082029050602081019050919050565b5f5ffd5b5f61214761214284612106565b6120ec565b9050808382526020820190506020840283018581111561216a57612169612131565b5b835b81811015612193578061217f8882611e39565b84526020840193505060208101905061216c565b5050509392505050565b5f82601f8301126121b1576121b061207a565b5b81356121c1848260208601612135565b91505092915050565b5f5f5f606084860312156121e1576121e0611d8d565b5b5f6121ee86828701611e39565b93505060206121ff86828701611db4565b925050604084013567ffffffffffffffff8111156122205761221f611d91565b5b61222c8682870161219d565b9150509250925092565b5f81519050919050565b5f82825260208201905092915050565b5f819050602082019050919050565b61226881611d95565b82525050565b5f612279838361225f565b60208301905092915050565b5f602082019050919050565b5f61229b82612236565b6122a58185612240565b93506122b083612250565b805f5b838110156122e05781516122c7888261226e565b97506122d283612285565b9250506001810190506122b3565b5085935050505092915050565b5f6040820190508181035f8301526123058185612291565b905081810360208301526123198184612291565b90509392505050565b5f5f6040838503121561233857612337611d8d565b5b5f61234585828601611f0c565b925050602061235685828601611db4565b9150509250929050565b5f60c0820190506123735f830189611ec5565b6123806020830188611e9d565b61238d6040830187611ec5565b61239a6060830186611e9d565b6123a76080830185611f94565b6123b460a0830184611ec5565b979650505050505050565b5f6060820190506123d25f830186611e9d565b6123df6020830185611e9d565b6123ec6040830184611f94565b949350505050565b5f82825260208201905092915050565b7f4f6e6c79207265676973746572656400000000000000000000000000000000005f82015250565b5f612438600f836123f4565b915061244382612404565b602082019050919050565b5f6020820190508181035f8301526124658161242c565b9050919050565b7f546f6f20686967680000000000000000000000000000000000000000000000005f82015250565b5f6124a06008836123f4565b91506124ab8261246c565b602082019050919050565b5f6020820190508181035f8301526124cd81612494565b9050919050565b7f42657420746f6f206c6f770000000000000000000000000000000000000000005f82015250565b5f612508600b836123f4565b9150612513826124d4565b602082019050919050565b5f6020820190508181035f830152612535816124fc565b9050919050565b7f42657474696e67206e6f7420616c6c6f776564000000000000000000000000005f82015250565b5f6125706013836123f4565b915061257b8261253c565b602082019050919050565b5f6020820190508181035f83015261259d81612564565b9050919050565b600381106125b0575f5ffd5b50565b5f815190506125c1816125a4565b92915050565b5f815190506125d581611e23565b92915050565b5f6125ed6125e884612106565b6120ec565b905080838252602082019050602084028301858111156126105761260f612131565b5b835b81811015612639578061262588826125c7565b845260208401935050602081019050612612565b5050509392505050565b5f82601f8301126126575761265661207a565b5b81516126678482602086016125db565b91505092915050565b5f8151905061267e81611d9e565b92915050565b5f8151905061269281612025565b92915050565b5f5f5f5f5f5f5f60e0888a0312156126b3576126b2611d8d565b5b5f6126c08a828b016125b3565b97505060206126d18a828b016125c7565b965050604088015167ffffffffffffffff8111156126f2576126f1611d91565b5b6126fe8a828b01612643565b955050606061270f8a828b01612670565b94505060806127208a828b01612684565b93505060a06127318a828b016125c7565b92505060c06127428a828b01612670565b91505092959891949750929550565b7f43616e6e6f74207665726966792067616d6500000000000000000000000000005f82015250565b5f6127856012836123f4565b915061279082612751565b602082019050919050565b5f6020820190508181035f8301526127b281612779565b9050919050565b7f4e487b71000000000000000000000000000000000000000000000000000000005f52603260045260245ffd5b7f496e76616c696420706c617965720000000000000000000000000000000000005f82015250565b5f61281a600e836123f4565b9150612825826127e6565b602082019050919050565b5f6020820190508181035f8301526128478161280e565b9050919050565b7f4e487b71000000000000000000000000000000000000000000000000000000005f52602160045260245ffd5b7f47616d652066696e6973686564000000000000000000000000000000000000005f82015250565b5f6128af600d836123f4565b91506128ba8261287b565b602082019050919050565b5f6020820190508181035f8301526128dc816128a3565b9050919050565b7f4e487b71000000000000000000000000000000000000000000000000000000005f52601160045260245ffd5b5f61291a82611d95565b915061292583611d95565b925082820190508082111561293d5761293c6128e3565b5b92915050565b7f4e6f7420726567697374657265640000000000000000000000000000000000005f82015250565b5f612977600e836123f4565b915061298282612943565b602082019050919050565b5f6020820190508181035f8301526129a48161296b565b9050919050565b7f43616e6e6f7420766572696679000000000000000000000000000000000000005f82015250565b5f6129df600d836123f4565b91506129ea826129ab565b602082019050919050565b5f6020820190508181035f830152612a0c816129d3565b9050919050565b7f47616d65206e6f742066696e69736865640000000000000000000000000000005f82015250565b5f612a476011836123f4565b9150612a5282612a13565b602082019050919050565b5f6020820190508181035f830152612a7481612a3b565b9050919050565b7f4e6f2077696e6e657200000000000000000000000000000000000000000000005f82015250565b5f612aaf6009836123f4565b9150612aba82612a7b565b602082019050919050565b5f6020820190508181035f830152612adc81612aa3565b9050919050565b5f612aed82611d95565b9150612af883611d95565b9250828202612b0681611d95565b91508282048414831517612b1d57612b1c6128e3565b5b5092915050565b7f4e487b71000000000000000000000000000000000000000000000000000000005f52601260045260245ffd5b5f612b5b82611d95565b9150612b6683611d95565b925082612b7657612b75612b24565b5b828204905092915050565b5f612b8b82611d95565b9150612b9683611d95565b9250828203905081811115612bae57612bad6128e3565b5b92915050565b7f4e6f2077696e6e696e67730000000000000000000000000000000000000000005f82015250565b5f612be8600b836123f4565b9150612bf382612bb4565b602082019050919050565b5f6020820190508181035f830152612c1581612bdc565b9050919050565b7f4e6f2062616c616e6365000000000000000000000000000000000000000000005f82015250565b5f612c50600a836123f4565b9150612c5b82612c1c565b602082019050919050565b5f6020820190508181035f830152612c7d81612c44565b9050919050565b5f81905092915050565b50565b5f612c9c5f83612c84565b9150612ca782612c8e565b5f82019050919050565b5f612cbb82612c91565b9150819050919050565b7f4661696c656400000000000000000000000000000000000000000000000000005f82015250565b5f612cf96006836123f4565b9150612d0482612cc5565b602082019050919050565b5f6020820190508181035f830152612d2681612ced565b9050919050565b5f60208284031215612d4257612d41611d8d565b5b5f612d4f84828501612684565b91505092915050565b5f8160601b9050919050565b5f612d6e82612d58565b9050919050565b5f612d7f82612d64565b9050919050565b612d97612d9282611e12565b612d75565b82525050565b5f819050919050565b612db7612db282611d95565b612d9d565b82525050565b5f612dc88285612d86565b601482019150612dd88284612da6565b602082019150819050939250505056fea2646970667358221220d0cef9caa8e34c1ab7a6f62e5d75f84e858d17c5d94005fc4752b910677b9d3964736f6c634300081c0033","linkReferences":{}},"methodIdentifiers":{"bettingClosed(bytes32)":"a6555fa8","bettingFeePercent()":"753b159f","claimBettingWinnings(address,uint256)":"a87a2ce7","emergencyWithdraw()":"db2e21bc","enableLastStandBetting(uint256)":"4ef6c853","finalizeGameBetting(uint256)":"d33a24ec","gameBets(bytes32,uint256)":"cae38ba2","getBettingOdds(address,uint256,address[])":"b6d548d9","getGameBettingInfo(address,uint256)":"dbaa96bc","globalBettingEnabled()":"ae6514be","isBettingAllowed(address,uint256)":"dd1d1f9b","minimumBet()":"c38a8afd","owner()":"8da5cb5b","placeBet(address,uint256,address)":"4b48a29f","registerGameContract(address)":"e6065dbe","registeredContracts(address)":"a06617cd","renounceOwnership()":"715018a6","setBettingFee(uint256)":"2c8b8f44","setGlobalBettingEnabled(bool)":"ad9d19ee","setMinimumBet(uint256)":"8772ae3c","spectatorBalances(address)":"9fac2049","totalBetsOnPlayer(bytes32,address)":"9142ee75","totalGameBets(bytes32)":"beae1910","transferOwnership(address)":"f2fde38b","updateLastStandRound(uint256)":"066d4407","withdrawSpectatorBalance()":"aa0ba0de"},"id":30}