{"abi":[{"type":"constructor","inputs":[],"stateMutability":"nonpayable"},{"type":"function","name":"MAX_TIMEOUTS","inputs":[],"outputs":[{"name":"","type":"uint256","internalType":"uint256"}],"stateMutability":"view"},{"type":"function","name":"balances","inputs":[{"name":"","type":"address","internalType":"address"}],"outputs":[{"name":"","type":"uint256","internalType":"uint256"}],"stateMutability":"view"},{"type":"function","name":"claimRewards","inputs":[],"outputs":[],"stateMutability":"nonpayable"},{"type":"function","name":"createQuickDraw","inputs":[],"outputs":[],"stateMutability":"payable"},{"type":"function","name":"createStrategic","inputs":[],"outputs":[],"stateMutability":"payable"},{"type":"function","name":"emergency","inputs":[],"outputs":[],"stateMutability":"nonpayable"},{"type":"function","name":"fees","inputs":[],"outputs":[{"name":"","type":"uint256","internalType":"uint256"}],"stateMutability":"view"},{"type":"function","name":"gameCounter","inputs":[],"outputs":[{"name":"","type":"uint256","internalType":"uint256"}],"stateMutability":"view"},{"type":"function","name":"gamePlayers","inputs":[{"name":"","type":"uint256","internalType":"uint256"},{"name":"","type":"uint256","internalType":"uint256"}],"outputs":[{"name":"","type":"address","internalType":"address"}],"stateMutability":"view"},{"type":"function","name":"games","inputs":[{"name":"","type":"uint256","internalType":"uint256"}],"outputs":[{"name":"gameId","type":"uint256","internalType":"uint256"},{"name":"mode","type":"uint8","internalType":"enum GameMode"},{"name":"currentNumber","type":"uint256","internalType":"uint256"},{"name":"currentPlayer","type":"address","internalType":"address"},{"name":"status","type":"uint8","internalType":"enum GameStatus"},{"name":"entryFee","type":"uint256","internalType":"uint256"},{"name":"prizePool","type":"uint256","internalType":"uint256"},{"name":"winner","type":"address","internalType":"address"},{"name":"numberGenerated","type":"bool","internalType":"bool"}],"stateMutability":"view"},{"type":"function","name":"getBonus","inputs":[{"name":"_player","type":"address","internalType":"address"}],"outputs":[{"name":"","type":"uint256","internalType":"uint256"}],"stateMutability":"view"},{"type":"function","name":"getGame","inputs":[{"name":"_id","type":"uint256","internalType":"uint256"}],"outputs":[{"name":"","type":"tuple","internalType":"struct Game","components":[{"name":"gameId","type":"uint256","internalType":"uint256"},{"name":"mode","type":"uint8","internalType":"enum GameMode"},{"name":"currentNumber","type":"uint256","internalType":"uint256"},{"name":"currentPlayer","type":"address","internalType":"address"},{"name":"status","type":"uint8","internalType":"enum GameStatus"},{"name":"entryFee","type":"uint256","internalType":"uint256"},{"name":"prizePool","type":"uint256","internalType":"uint256"},{"name":"winner","type":"address","internalType":"address"},{"name":"numberGenerated","type":"bool","internalType":"bool"}]}],"stateMutability":"view"},{"type":"function","name":"getGameForSpectators","inputs":[{"name":"_id","type":"uint256","internalType":"uint256"}],"outputs":[{"name":"status","type":"uint8","internalType":"enum GameStatus"},{"name":"winner","type":"address","internalType":"address"},{"name":"players","type":"address[]","internalType":"address[]"},{"name":"currentNumber","type":"uint256","internalType":"uint256"},{"name":"numberGenerated","type":"bool","internalType":"bool"},{"name":"currentPlayer","type":"address","internalType":"address"},{"name":"mode","type":"uint256","internalType":"uint256"}],"stateMutability":"view"},{"type":"function","name":"getPlatformStats","inputs":[],"outputs":[{"name":"","type":"uint256","internalType":"uint256"},{"name":"","type":"uint256","internalType":"uint256"},{"name":"","type":"uint256","internalType":"uint256"}],"stateMutability":"view"},{"type":"function","name":"getPlayerView","inputs":[{"name":"_id","type":"uint256","internalType":"uint256"}],"outputs":[{"name":"number","type":"uint256","internalType":"uint256"},{"name":"yourTurn","type":"bool","internalType":"bool"},{"name":"status","type":"string","internalType":"string"},{"name":"timeLeft","type":"uint256","internalType":"uint256"},{"name":"condition","type":"string","internalType":"string"},{"name":"yourTimeouts","type":"uint256","internalType":"uint256"},{"name":"opponentTimeouts","type":"uint256","internalType":"uint256"}],"stateMutability":"view"},{"type":"function","name":"getPlayers","inputs":[{"name":"_id","type":"uint256","internalType":"uint256"}],"outputs":[{"name":"","type":"address[]","internalType":"address[]"}],"stateMutability":"view"},{"type":"function","name":"getStats","inputs":[{"name":"_player","type":"address","internalType":"address"}],"outputs":[{"name":"","type":"uint256","internalType":"uint256"},{"name":"","type":"uint256","internalType":"uint256"},{"name":"","type":"uint256","internalType":"uint256"},{"name":"","type":"uint256","internalType":"uint256"},{"name":"","type":"uint256","internalType":"uint256"}],"stateMutability":"view"},{"type":"function","name":"getTimeoutStatus","inputs":[{"name":"_id","type":"uint256","internalType":"uint256"},{"name":"_player","type":"address","internalType":"address"}],"outputs":[{"name":"timeouts","type":"uint256","internalType":"uint256"},{"name":"remaining","type":"uint256","internalType":"uint256"}],"stateMutability":"view"},{"type":"function","name":"handleTimeout","inputs":[{"name":"_id","type":"uint256","internalType":"uint256"}],"outputs":[],"stateMutability":"nonpayable"},{"type":"function","name":"isGameBettable","inputs":[{"name":"_id","type":"uint256","internalType":"uint256"}],"outputs":[{"name":"","type":"bool","internalType":"bool"}],"stateMutability":"view"},{"type":"function","name":"isInGame","inputs":[{"name":"","type":"uint256","internalType":"uint256"},{"name":"","type":"address","internalType":"address"}],"outputs":[{"name":"","type":"bool","internalType":"bool"}],"stateMutability":"view"},{"type":"function","name":"isOnFinalWarning","inputs":[{"name":"_id","type":"uint256","internalType":"uint256"},{"name":"_player","type":"address","internalType":"address"}],"outputs":[{"name":"","type":"bool","internalType":"bool"}],"stateMutability":"view"},{"type":"function","name":"isTimedOut","inputs":[{"name":"_id","type":"uint256","internalType":"uint256"}],"outputs":[{"name":"","type":"bool","internalType":"bool"}],"stateMutability":"view"},{"type":"function","name":"joinGame","inputs":[{"name":"_id","type":"uint256","internalType":"uint256"}],"outputs":[],"stateMutability":"payable"},{"type":"function","name":"makeMove","inputs":[{"name":"_id","type":"uint256","internalType":"uint256"},{"name":"_sub","type":"uint256","internalType":"uint256"}],"outputs":[],"stateMutability":"nonpayable"},{"type":"function","name":"owner","inputs":[],"outputs":[{"name":"","type":"address","internalType":"address"}],"stateMutability":"view"},{"type":"function","name":"paused","inputs":[],"outputs":[{"name":"","type":"bool","internalType":"bool"}],"stateMutability":"view"},{"type":"function","name":"platformFee","inputs":[],"outputs":[{"name":"","type":"uint256","internalType":"uint256"}],"stateMutability":"view"},{"type":"function","name":"played","inputs":[{"name":"","type":"address","internalType":"address"}],"outputs":[{"name":"","type":"uint256","internalType":"uint256"}],"stateMutability":"view"},{"type":"function","name":"playerTimeouts","inputs":[{"name":"","type":"uint256","internalType":"uint256"},{"name":"","type":"address","internalType":"address"}],"outputs":[{"name":"","type":"uint256","internalType":"uint256"}],"stateMutability":"view"},{"type":"function","name":"renounceOwnership","inputs":[],"outputs":[],"stateMutability":"nonpayable"},{"type":"function","name":"setPaused","inputs":[{"name":"_paused","type":"bool","internalType":"bool"}],"outputs":[],"stateMutability":"nonpayable"},{"type":"function","name":"setPlatformFee","inputs":[{"name":"_fee","type":"uint256","internalType":"uint256"}],"outputs":[],"stateMutability":"nonpayable"},{"type":"function","name":"setSpectatorContract","inputs":[{"name":"_spectator","type":"address","internalType":"address"}],"outputs":[],"stateMutability":"nonpayable"},{"type":"function","name":"setStakingAPY","inputs":[{"name":"_apy","type":"uint256","internalType":"uint256"}],"outputs":[],"stateMutability":"nonpayable"},{"type":"function","name":"setTimeLimit","inputs":[{"name":"_timeLimit","type":"uint256","internalType":"uint256"}],"outputs":[],"stateMutability":"nonpayable"},{"type":"function","name":"spectatorContract","inputs":[],"outputs":[{"name":"","type":"address","internalType":"address"}],"stateMutability":"view"},{"type":"function","name":"stake","inputs":[],"outputs":[],"stateMutability":"payable"},{"type":"function","name":"staking","inputs":[{"name":"","type":"address","internalType":"address"}],"outputs":[{"name":"amount","type":"uint256","internalType":"uint256"},{"name":"lastReward","type":"uint256","internalType":"uint256"},{"name":"rewards","type":"uint256","internalType":"uint256"}],"stateMutability":"view"},{"type":"function","name":"stakingAPY","inputs":[],"outputs":[{"name":"","type":"uint256","internalType":"uint256"}],"stateMutability":"view"},{"type":"function","name":"timeLimit","inputs":[],"outputs":[{"name":"","type":"uint256","internalType":"uint256"}],"stateMutability":"view"},{"type":"function","name":"totalStaked","inputs":[],"outputs":[{"name":"","type":"uint256","internalType":"uint256"}],"stateMutability":"view"},{"type":"function","name":"transferOwnership","inputs":[{"name":"newOwner","type":"address","internalType":"address"}],"outputs":[],"stateMutability":"nonpayable"},{"type":"function","name":"turnDeadlines","inputs":[{"name":"","type":"uint256","internalType":"uint256"}],"outputs":[{"name":"","type":"uint256","internalType":"uint256"}],"stateMutability":"view"},{"type":"function","name":"unstake","inputs":[{"name":"_amount","type":"uint256","internalType":"uint256"}],"outputs":[],"stateMutability":"nonpayable"},{"type":"function","name":"verifyFairness","inputs":[{"name":"_id","type":"uint256","internalType":"uint256"}],"outputs":[{"name":"","type":"bool","internalType":"bool"},{"name":"","type":"uint256","internalType":"uint256"},{"name":"","type":"string","internalType":"string"}],"stateMutability":"view"},{"type":"function","name":"wins","inputs":[{"name":"","type":"address","internalType":"address"}],"outputs":[{"name":"","type":"uint256","internalType":"uint256"}],"stateMutability":"view"},{"type":"function","name":"withdraw","inputs":[],"outputs":[],"stateMutability":"nonpayable"},{"type":"function","name":"withdrawFees","inputs":[],"outputs":[],"stateMutability":"nonpayable"},{"type":"event","name":"GameFinished","inputs":[{"name":"gameId","type":"uint256","indexed":true,"internalType":"uint256"},{"name":"winner","type":"address","indexed":false,"internalType":"address"},{"name":"earnings","type":"uint256","indexed":false,"internalType":"uint256"}],"anonymous":false},{"type":"event","name":"MoveMade","inputs":[{"name":"gameId","type":"uint256","indexed":true,"internalType":"uint256"},{"name":"player","type":"address","indexed":false,"internalType":"address"},{"name":"subtraction","type":"uint256","indexed":false,"internalType":"uint256"},{"name":"newNumber","type":"uint256","indexed":false,"internalType":"uint256"}],"anonymous":false},{"type":"event","name":"OwnershipTransferred","inputs":[{"name":"previousOwner","type":"address","indexed":true,"internalType":"address"},{"name":"newOwner","type":"address","indexed":true,"internalType":"address"}],"anonymous":false},{"type":"event","name":"PlayerTimeout","inputs":[{"name":"gameId","type":"uint256","indexed":true,"internalType":"uint256"},{"name":"player","type":"address","indexed":true,"internalType":"address"},{"name":"timeoutCount","type":"uint256","indexed":false,"internalType":"uint256"}],"anonymous":false},{"type":"event","name":"Staked","inputs":[{"name":"staker","type":"address","indexed":true,"internalType":"address"},{"name":"amount","type":"uint256","indexed":false,"internalType":"uint256"}],"anonymous":false},{"type":"event","name":"TurnSkipped","inputs":[{"name":"gameId","type":"uint256","indexed":true,"internalType":"uint256"},{"name":"player","type":"address","indexed":true,"internalType":"address"},{"name":"timeoutCount","type":"uint256","indexed":false,"internalType":"uint256"}],"anonymous":false},{"type":"event","name":"Unstaked","inputs":[{"name":"staker","type":"address","indexed":true,"internalType":"address"},{"name":"amount","type":"uint256","indexed":false,"internalType":"uint256"}],"anonymous":false},{"type":"error","name":"OwnableInvalidOwner","inputs":[{"name":"owner","type":"address","internalType":"address"}]},{"type":"error","name":"OwnableUnauthorizedAccount","inputs":[{"name":"account","type":"address","internalType":"address"}]},{"type":"error","name":"ReentrancyGuardReentrantCall","inputs":[]}],"bytecode":{"object":"0x60806040526005600c556103e8600f5561012c601055348015610020575f5ffd5b503360015f819055505f73ffffffffffffffffffffffffffffffffffffffff168173ffffffffffffffffffffffffffffffffffffffff1603610099575f6040517f1e4fbdf700000000000000000000000000000000000000000000000000000000815260040161009091906101b0565b60405180910390fd5b6100a8816100ae60201b60201c565b506101c9565b5f60015f9054906101000a900473ffffffffffffffffffffffffffffffffffffffff1690508160015f6101000a81548173ffffffffffffffffffffffffffffffffffffffff021916908373ffffffffffffffffffffffffffffffffffffffff1602179055508173ffffffffffffffffffffffffffffffffffffffff168173ffffffffffffffffffffffffffffffffffffffff167f8be0079c531659141344cd1fd0a4f28419497f9722a3daafe3b4186f6b6457e060405160405180910390a35050565b5f73ffffffffffffffffffffffffffffffffffffffff82169050919050565b5f61019a82610171565b9050919050565b6101aa81610190565b82525050565b5f6020820190506101c35f8301846101a1565b92915050565b615ef3806101d65f395ff3fe6080604052600436106102ad575f3560e01c80635f5e3e9111610174578063bcd9e0c3116100db578063d764b78f11610094578063e2889c821161006e578063e2889c8214610ab4578063ed6fe70714610adc578063efaa55a014610b1a578063f2fde38b14610b36576102ad565b8063d764b78f14610a12578063dea9456d14610a50578063dfefef9f14610a78576102ad565b8063bcd9e0c3146108dd578063c08d1fe51461091a578063c23f85d614610944578063c3cb4e7a14610984578063caa6fea4146109c0578063cc8ac988146109d6576102ad565b80638da5cb5b1161012d5780638da5cb5b146107d35780639af1d35a146107fd578063a2f77bcc14610827578063b4f3626414610863578063b6f5b3a61461088b578063b79fdcc5146108b3576102ad565b80635f5e3e91146106e7578063715018a6146107235780638047a97a14610739578063817b1cd21461077557806385682a5e1461079f57806388b7225e146107a9576102ad565b8063372500ab11610218578063460e2049116101d1578063460e2049146105e3578063476343ee1461061f5780634d389e781461063557806353226bd01461067757806355e46c89146106b35780635c975abb146106bd576102ad565b8063372500ab146104f35780633a4b66f1146105095780633a740a63146105135780633a9a30731461054f5780633ccfd60b1461058b5780633d2a9026146105a1576102ad565b80631cc609081161026a5780631cc60908146103d757806325d3f8cb1461041357806326232a2e1461043b57806327e235e3146104655780632e0be39a146104a15780632e17de78146104cb576102ad565b8063117a5b90146102b157806312e8e2c3146102f5578063136d88831461031d5780631531b62a1461034957806316c38b3c146103735780631c07ec9d1461039b575b5f5ffd5b3480156102bc575f5ffd5b506102d760048036038101906102d29190614bdd565b610b5e565b6040516102ec99989796959493929190614d29565b60405180910390f35b348015610300575f5ffd5b5061031b60048036038101906103169190614bdd565b610c0c565b005b348015610328575f5ffd5b50610331610c62565b60405161034093929190614db4565b60405180910390f35b348015610354575f5ffd5b5061035d610c79565b60405161036a9190614de9565b60405180910390f35b34801561037e575f5ffd5b5061039960048036038101906103949190614e2c565b610c7f565b005b3480156103a6575f5ffd5b506103c160048036038101906103bc9190614e81565b610ca3565b6040516103ce9190614ebf565b60405180910390f35b3480156103e2575f5ffd5b506103fd60048036038101906103f89190614ed8565b610d08565b60405161040a9190614de9565b60405180910390f35b34801561041e575f5ffd5b5061043960048036038101906104349190614bdd565b610d1d565b005b348015610446575f5ffd5b5061044f610d74565b60405161045c9190614de9565b60405180910390f35b348015610470575f5ffd5b5061048b60048036038101906104869190614ed8565b610d7a565b6040516104989190614de9565b60405180910390f35b3480156104ac575f5ffd5b506104b5610d8f565b6040516104c29190614de9565b60405180910390f35b3480156104d6575f5ffd5b506104f160048036038101906104ec9190614bdd565b610d95565b005b3480156104fe575f5ffd5b50610507610f49565b005b610511610f65565b005b34801561051e575f5ffd5b5061053960048036038101906105349190614ed8565b610fd8565b6040516105469190614de9565b60405180910390f35b34801561055a575f5ffd5b5061057560048036038101906105709190614e81565b611072565b6040516105829190614ebf565b60405180910390f35b348015610596575f5ffd5b5061059f61109c565b005b3480156105ac575f5ffd5b506105c760048036038101906105c29190614bdd565b61121d565b6040516105da9796959493929190614f73565b60405180910390f35b3480156105ee575f5ffd5b5061060960048036038101906106049190614bdd565b611a5a565b60405161061691906150a5565b60405180910390f35b34801561062a575f5ffd5b50610633611af6565b005b348015610640575f5ffd5b5061065b60048036038101906106569190614bdd565b611c10565b60405161066e97969594939291906150c5565b60405180910390f35b348015610682575f5ffd5b5061069d60048036038101906106989190614e81565b611c3e565b6040516106aa9190614de9565b60405180910390f35b6106bb611c5e565b005b3480156106c8575f5ffd5b506106d1611d0a565b6040516106de9190614ebf565b60405180910390f35b3480156106f2575f5ffd5b5061070d60048036038101906107089190614bdd565b611d1c565b60405161071a9190614ebf565b60405180910390f35b34801561072e575f5ffd5b50610737611f13565b005b348015610744575f5ffd5b5061075f600480360381019061075a9190614ed8565b611f26565b60405161076c9190614de9565b60405180910390f35b348015610780575f5ffd5b50610789611f3b565b6040516107969190614de9565b60405180910390f35b6107a7611f41565b005b3480156107b4575f5ffd5b506107bd611fec565b6040516107ca9190615139565b60405180910390f35b3480156107de575f5ffd5b506107e7612012565b6040516107f49190615139565b60405180910390f35b348015610808575f5ffd5b5061081161203a565b60405161081e9190614de9565b60405180910390f35b348015610832575f5ffd5b5061084d60048036038101906108489190614bdd565b612040565b60405161085a9190615243565b60405180910390f35b34801561086e575f5ffd5b5061088960048036038101906108849190614bdd565b6121cd565b005b348015610896575f5ffd5b506108b160048036038101906108ac9190614ed8565b6124dd565b005b3480156108be575f5ffd5b506108c7612529565b6040516108d49190614de9565b60405180910390f35b3480156108e8575f5ffd5b5061090360048036038101906108fe9190614e81565b61252e565b60405161091192919061525d565b60405180910390f35b348015610925575f5ffd5b5061092e6125a5565b60405161093b9190614de9565b60405180910390f35b34801561094f575f5ffd5b5061096a60048036038101906109659190614ed8565b6125ab565b60405161097b959493929190615284565b60405180910390f35b34801561098f575f5ffd5b506109aa60048036038101906109a59190614bdd565b61279a565b6040516109b79190614de9565b60405180910390f35b3480156109cb575f5ffd5b506109d46127af565b005b3480156109e1575f5ffd5b506109fc60048036038101906109f79190614bdd565b612869565b604051610a099190614ebf565b60405180910390f35b348015610a1d575f5ffd5b50610a386004803603810190610a339190614ed8565b612a3b565b604051610a4793929190614db4565b60405180910390f35b348015610a5b575f5ffd5b50610a766004803603810190610a7191906152d5565b612a61565b005b348015610a83575f5ffd5b50610a9e6004803603810190610a9991906152d5565b612fff565b604051610aab9190615139565b60405180910390f35b348015610abf575f5ffd5b50610ada6004803603810190610ad59190614bdd565b613047565b005b348015610ae7575f5ffd5b50610b026004803603810190610afd9190614bdd565b6130ab565b604051610b1193929190615313565b60405180910390f35b610b346004803603810190610b2f9190614bdd565b613272565b005b348015610b41575f5ffd5b50610b5c6004803603810190610b579190614ed8565b6132ce565b005b6003602052805f5260405f205f91509050805f015490806001015f9054906101000a900460ff1690806002015490806003015f9054906101000a900473ffffffffffffffffffffffffffffffffffffffff16908060030160149054906101000a900460ff1690806004015490806005015490806006015f9054906101000a900473ffffffffffffffffffffffffffffffffffffffff16908060060160149054906101000a900460ff16905089565b610c14613352565b600a811115610c58576040517f08c379a0000000000000000000000000000000000000000000000000000000008152600401610c4f90615399565b60405180910390fd5b80600c8190555050565b5f5f5f600b54600d54600e54925092509250909192565b600f5481565b610c87613352565b8060115f6101000a81548160ff02191690831515021790555050565b5f60016002610cb291906153e4565b60025f8581526020019081526020015f205f8473ffffffffffffffffffffffffffffffffffffffff1673ffffffffffffffffffffffffffffffffffffffff1681526020019081526020015f205414905092915050565b6009602052805f5260405f205f915090505481565b610d25613352565b611388811115610d6a576040517f08c379a0000000000000000000000000000000000000000000000000000000008152600401610d6190615399565b60405180910390fd5b80600f8190555050565b600c5481565b6007602052805f5260405f205f915090505481565b600b5481565b610d9d6133d9565b5f600a5f3373ffffffffffffffffffffffffffffffffffffffff1673ffffffffffffffffffffffffffffffffffffffff1681526020019081526020015f20905081815f01541015610e23576040517f08c379a0000000000000000000000000000000000000000000000000000000008152600401610e1a90615461565b60405180910390fd5b610e2e600a8361341d565b81600e5f828254610e3f91906153e4565b925050819055505f3373ffffffffffffffffffffffffffffffffffffffff1683604051610e6b906154ac565b5f6040518083038185875af1925050503d805f8114610ea5576040519150601f19603f3d011682016040523d82523d5f602084013e610eaa565b606091505b5050905080610eee576040517f08c379a0000000000000000000000000000000000000000000000000000000008152600401610ee59061550a565b60405180910390fd5b3373ffffffffffffffffffffffffffffffffffffffff167f0f5bb82176feb1b5e747e28471aa92156a04d9f3ab9f45f28e2d704232b93f7584604051610f349190614de9565b60405180910390a25050610f46613518565b50565b610f516133d9565b610f5b600a613521565b610f63613518565b565b610f70600a346136aa565b34600e5f828254610f819190615528565b925050819055503373ffffffffffffffffffffffffffffffffffffffff167f9e71bc8eea02a63969f509818f2dafb9254532904319f9dbda79b67bd34a5f3d34604051610fce9190614de9565b60405180910390a2565b5f5f600a5f8473ffffffffffffffffffffffffffffffffffffffff1673ffffffffffffffffffffffffffffffffffffffff1681526020019081526020015f205f01549050674563918244f40000811061103557609691505061106d565b670de0b6b3a7640000811061104e57607d91505061106d565b67016345785d8a0000811061106757606e91505061106d565b60649150505b919050565b6005602052815f5260405f20602052805f5260405f205f915091509054906101000a900460ff1681565b6110a46133d9565b5f60075f3373ffffffffffffffffffffffffffffffffffffffff1673ffffffffffffffffffffffffffffffffffffffff1681526020019081526020015f205490505f8111611127576040517f08c379a000000000000000000000000000000000000000000000000000000000815260040161111e906155a5565b60405180910390fd5b5f60075f3373ffffffffffffffffffffffffffffffffffffffff1673ffffffffffffffffffffffffffffffffffffffff1681526020019081526020015f20819055505f3373ffffffffffffffffffffffffffffffffffffffff168260405161118e906154ac565b5f6040518083038185875af1925050503d805f81146111c8576040519150601f19603f3d011682016040523d82523d5f602084013e6111cd565b606091505b5050905080611211576040517f08c379a00000000000000000000000000000000000000000000000000000000081526004016112089061550a565b60405180910390fd5b505061121b613518565b565b5f5f60605f60605f5f5f60035f8a81526020019081526020015f20604051806101200160405290815f8201548152602001600182015f9054906101000a900460ff16600181111561127157611270614c17565b5b600181111561128357611282614c17565b5b815260200160028201548152602001600382015f9054906101000a900473ffffffffffffffffffffffffffffffffffffffff1673ffffffffffffffffffffffffffffffffffffffff1673ffffffffffffffffffffffffffffffffffffffff1681526020016003820160149054906101000a900460ff16600281111561130b5761130a614c17565b5b600281111561131d5761131c614c17565b5b81526020016004820154815260200160058201548152602001600682015f9054906101000a900473ffffffffffffffffffffffffffffffffffffffff1673ffffffffffffffffffffffffffffffffffffffff1673ffffffffffffffffffffffffffffffffffffffff1681526020016006820160149054906101000a900460ff16151515158152505090505f60045f8b81526020019081526020015f2080548060200260200160405190810160405280929190818152602001828054801561143657602002820191905f5260205f20905b815f9054906101000a900473ffffffffffffffffffffffffffffffffffffffff1673ffffffffffffffffffffffffffffffffffffffff16815260200190600101908083116113ed575b505050505090505f5f905060028251036114d7573373ffffffffffffffffffffffffffffffffffffffff16825f81518110611474576114736155c3565b5b602002602001015173ffffffffffffffffffffffffffffffffffffffff16146114b757815f815181106114aa576114a96155c3565b5b60200260200101516114d4565b816001815181106114cb576114ca6155c3565b5b60200260200101515b90505b8261010001516114e7575f6114ed565b82604001515b9950826060015173ffffffffffffffffffffffffffffffffffffffff163373ffffffffffffffffffffffffffffffffffffffff1614985060025f8c81526020019081526020015f205f3373ffffffffffffffffffffffffffffffffffffffff1673ffffffffffffffffffffffffffffffffffffffff1681526020019081526020015f205494505f73ffffffffffffffffffffffffffffffffffffffff168173ffffffffffffffffffffffffffffffffffffffff16036115ac575f6115fa565b60025f8c81526020019081526020015f205f8273ffffffffffffffffffffffffffffffffffffffff1673ffffffffffffffffffffffffffffffffffffffff1681526020019081526020015f20545b935060018081111561160f5761160e614c17565b5b8360200151600181111561162657611625614c17565b5b14611666576040518060400160405280601281526020017f5265616368207a65726f20746f2077696e21000000000000000000000000000081525061169d565b6040518060400160405280601181526020017f444f4e2754207265616368207a65726f210000000000000000000000000000008152505b95505f60028111156116b2576116b1614c17565b5b836080015160028111156116c9576116c8614c17565b5b036117ae575f825190506002811480156116e65750836101000151155b15611728576040518060400160405280601481526020017f47656e65726174696e67206e756d6265722e2e2e00000000000000000000000081525098506117a5565b6001811461176b576040518060400160405280600e81526020017f526561647920746f2073746172740000000000000000000000000000000000008152506117a2565b6040518060400160405280601481526020017f57616974696e6720666f72206f70706f6e656e740000000000000000000000008152505b98505b5f975050611a4c565b600160028111156117c2576117c1614c17565b5b836080015160028111156117d9576117d8614c17565b5b0361199c5760065f8c81526020019081526020015f20544211156118c1575f60025f8d81526020019081526020015f205f856060015173ffffffffffffffffffffffffffffffffffffffff1673ffffffffffffffffffffffffffffffffffffffff1681526020019081526020015f205490506001600261185991906153e4565b811061187f57604051806060016040528060248152602001615e756024913998506118b8565b6040518060400160405280601e81526020017f54696d656f7574202d205475726e2077696c6c20626520736b6970706564000081525098505b5f975050611997565b4260065f8d81526020019081526020015f20546118de91906153e4565b96505f60025f8d81526020019081526020015f205f856060015173ffffffffffffffffffffffffffffffffffffffff1673ffffffffffffffffffffffffffffffffffffffff1681526020019081526020015f205490506001810361195c57604051806060016040528060258152602001615e99602591399850611995565b6040518060400160405280600b81526020017f47616d652061637469766500000000000000000000000000000000000000000081525098505b505b611a4b565b3373ffffffffffffffffffffffffffffffffffffffff168360e0015173ffffffffffffffffffffffffffffffffffffffff1614611a0e576040518060400160405280600d81526020017f47616d652066696e697368656400000000000000000000000000000000000000815250611a45565b6040518060400160405280600881526020017f596f7520776f6e210000000000000000000000000000000000000000000000008152505b97505f96505b5b505050919395979092949650565b606060045f8381526020019081526020015f20805480602002602001604051908101604052809291908181526020018280548015611aea57602002820191905f5260205f20905b815f9054906101000a900473ffffffffffffffffffffffffffffffffffffffff1673ffffffffffffffffffffffffffffffffffffffff1681526020019060010190808311611aa1575b50505050509050919050565b611afe613352565b611b066133d9565b5f600d5490505f8111611b4e576040517f08c379a0000000000000000000000000000000000000000000000000000000008152600401611b459061563a565b60405180910390fd5b5f600d819055505f611b5e612012565b73ffffffffffffffffffffffffffffffffffffffff1682604051611b81906154ac565b5f6040518083038185875af1925050503d805f8114611bbb576040519150601f19603f3d011682016040523d82523d5f602084013e611bc0565b606091505b5050905080611c04576040517f08c379a0000000000000000000000000000000000000000000000000000000008152600401611bfb9061550a565b60405180910390fd5b5050611c0e613518565b565b5f5f60605f5f5f5f611c2560038960046137ad565b9650965096509650965096509650919395979092949650565b6002602052815f5260405f20602052805f5260405f205f91509150505481565b60115f9054906101000a900460ff1615611cad576040517f08c379a0000000000000000000000000000000000000000000000000000000008152600401611ca4906156a2565b60405180910390fd5b5f3411611cef576040517f08c379a0000000000000000000000000000000000000000000000000000000008152600401611ce69061570a565b60405180910390fd5b611d086001600b54600360026005600460096006613a2a565b565b60115f9054906101000a900460ff1681565b5f5f60035f8481526020019081526020015f20604051806101200160405290815f8201548152602001600182015f9054906101000a900460ff166001811115611d6857611d67614c17565b5b6001811115611d7a57611d79614c17565b5b815260200160028201548152602001600382015f9054906101000a900473ffffffffffffffffffffffffffffffffffffffff1673ffffffffffffffffffffffffffffffffffffffff1673ffffffffffffffffffffffffffffffffffffffff1681526020016003820160149054906101000a900460ff166002811115611e0257611e01614c17565b5b6002811115611e1457611e13614c17565b5b81526020016004820154815260200160058201548152602001600682015f9054906101000a900473ffffffffffffffffffffffffffffffffffffffff1673ffffffffffffffffffffffffffffffffffffffff1673ffffffffffffffffffffffffffffffffffffffff1681526020016006820160149054906101000a900460ff16151515158152505090505f815f015114158015611f0b57505f6002811115611ebf57611ebe614c17565b5b81608001516002811115611ed657611ed5614c17565b5b1480611f0a575060016002811115611ef157611ef0614c17565b5b81608001516002811115611f0857611f07614c17565b5b145b5b915050919050565b611f1b613352565b611f245f613c6b565b565b6008602052805f5260405f205f915090505481565b600e5481565b60115f9054906101000a900460ff1615611f90576040517f08c379a0000000000000000000000000000000000000000000000000000000008152600401611f87906156a2565b60405180910390fd5b5f3411611fd2576040517f08c379a0000000000000000000000000000000000000000000000000000000008152600401611fc99061570a565b60405180910390fd5b611fea5f600b54600360026005600460096006613a2a565b565b601160019054906101000a900473ffffffffffffffffffffffffffffffffffffffff1681565b5f60015f9054906101000a900473ffffffffffffffffffffffffffffffffffffffff16905090565b600d5481565b612048614b11565b60035f8381526020019081526020015f20604051806101200160405290815f8201548152602001600182015f9054906101000a900460ff16600181111561209257612091614c17565b5b60018111156120a4576120a3614c17565b5b815260200160028201548152602001600382015f9054906101000a900473ffffffffffffffffffffffffffffffffffffffff1673ffffffffffffffffffffffffffffffffffffffff1673ffffffffffffffffffffffffffffffffffffffff1681526020016003820160149054906101000a900460ff16600281111561212c5761212b614c17565b5b600281111561213e5761213d614c17565b5b81526020016004820154815260200160058201548152602001600682015f9054906101000a900473ffffffffffffffffffffffffffffffffffffffff1673ffffffffffffffffffffffffffffffffffffffff1673ffffffffffffffffffffffffffffffffffffffff1681526020016006820160149054906101000a900460ff1615151515815250509050919050565b5f60035f8381526020019081526020015f209050600160028111156121f5576121f4614c17565b5b8160030160149054906101000a900460ff16600281111561221957612218614c17565b5b14612259576040517f08c379a000000000000000000000000000000000000000000000000000000000815260040161225090615772565b60405180910390fd5b60065f8381526020019081526020015f205442116122ac576040517f08c379a00000000000000000000000000000000000000000000000000000000081526004016122a3906157da565b60405180910390fd5b5f816003015f9054906101000a900473ffffffffffffffffffffffffffffffffffffffff16905060025f8481526020019081526020015f205f8273ffffffffffffffffffffffffffffffffffffffff1673ffffffffffffffffffffffffffffffffffffffff1681526020019081526020015f205f81548092919061232f906157f8565b91905055508073ffffffffffffffffffffffffffffffffffffffff16837f2a791377fc5eeec8a3c10b3ad4baf3687eb8dd74bdd79dbd63d29070d4c687c760025f8781526020019081526020015f205f8573ffffffffffffffffffffffffffffffffffffffff1673ffffffffffffffffffffffffffffffffffffffff1681526020019081526020015f20546040516123c79190614de9565b60405180910390a36002805f8581526020019081526020015f205f8373ffffffffffffffffffffffffffffffffffffffff1673ffffffffffffffffffffffffffffffffffffffff1681526020019081526020015f2054106124335761242c8382613d2e565b50506124da565b61243c83613e61565b8073ffffffffffffffffffffffffffffffffffffffff16837f483c4ee11e1d637eff6c2e536ba48554bb3f35d6895431e9bc8e02111e4c6f7060025f8781526020019081526020015f205f8573ffffffffffffffffffffffffffffffffffffffff1673ffffffffffffffffffffffffffffffffffffffff1681526020019081526020015f20546040516124cf9190614de9565b60405180910390a350505b50565b6124e5613352565b80601160016101000a81548173ffffffffffffffffffffffffffffffffffffffff021916908373ffffffffffffffffffffffffffffffffffffffff16021790555050565b600281565b5f5f60025f8581526020019081526020015f205f8473ffffffffffffffffffffffffffffffffffffffff1673ffffffffffffffffffffffffffffffffffffffff1681526020019081526020015f20549150600282101561259a5781600261259591906153e4565b61259c565b5f5b90509250929050565b60105481565b5f5f5f5f5f60075f8773ffffffffffffffffffffffffffffffffffffffff1673ffffffffffffffffffffffffffffffffffffffff1681526020019081526020015f205460085f8873ffffffffffffffffffffffffffffffffffffffff1673ffffffffffffffffffffffffffffffffffffffff1681526020019081526020015f205460095f8973ffffffffffffffffffffffffffffffffffffffff1673ffffffffffffffffffffffffffffffffffffffff1681526020019081526020015f20545f60095f8b73ffffffffffffffffffffffffffffffffffffffff1673ffffffffffffffffffffffffffffffffffffffff1681526020019081526020015f2054116126b4575f612747565b60095f8a73ffffffffffffffffffffffffffffffffffffffff1673ffffffffffffffffffffffffffffffffffffffff1681526020019081526020015f2054606460085f8c73ffffffffffffffffffffffffffffffffffffffff1673ffffffffffffffffffffffffffffffffffffffff1681526020019081526020015f205461273c919061583f565b61274691906158ad565b5b600a5f8b73ffffffffffffffffffffffffffffffffffffffff1673ffffffffffffffffffffffffffffffffffffffff1681526020019081526020015f205f01549450945094509450945091939590929450565b6006602052805f5260405f205f915090505481565b6127b7613352565b5f6127c0612012565b73ffffffffffffffffffffffffffffffffffffffff16476040516127e3906154ac565b5f6040518083038185875af1925050503d805f811461281d576040519150601f19603f3d011682016040523d82523d5f602084013e612822565b606091505b5050905080612866576040517f08c379a000000000000000000000000000000000000000000000000000000000815260040161285d9061550a565b60405180910390fd5b50565b5f5f60035f8481526020019081526020015f20604051806101200160405290815f8201548152602001600182015f9054906101000a900460ff1660018111156128b5576128b4614c17565b5b60018111156128c7576128c6614c17565b5b815260200160028201548152602001600382015f9054906101000a900473ffffffffffffffffffffffffffffffffffffffff1673ffffffffffffffffffffffffffffffffffffffff1673ffffffffffffffffffffffffffffffffffffffff1681526020016003820160149054906101000a900460ff16600281111561294f5761294e614c17565b5b600281111561296157612960614c17565b5b81526020016004820154815260200160058201548152602001600682015f9054906101000a900473ffffffffffffffffffffffffffffffffffffffff1673ffffffffffffffffffffffffffffffffffffffff1673ffffffffffffffffffffffffffffffffffffffff1681526020016006820160149054906101000a900460ff1615151515815250509050600160028111156129ff576129fe614c17565b5b81608001516002811115612a1657612a15614c17565b5b148015612a33575060065f8481526020019081526020015f205442115b915050919050565b600a602052805f5260405f205f91509050805f0154908060010154908060020154905083565b60115f9054906101000a900460ff1615612ab0576040517f08c379a0000000000000000000000000000000000000000000000000000000008152600401612aa7906156a2565b60405180910390fd5b5f60035f8481526020019081526020015f20905060016002811115612ad857612ad7614c17565b5b8160030160149054906101000a900460ff166002811115612afc57612afb614c17565b5b14612b3c576040517f08c379a0000000000000000000000000000000000000000000000000000000008152600401612b3390615772565b60405180910390fd5b8060060160149054906101000a900460ff16612b8d576040517f08c379a0000000000000000000000000000000000000000000000000000000008152600401612b8490615927565b60405180910390fd5b60065f8481526020019081526020015f2054421115612e07575f816003015f9054906101000a900473ffffffffffffffffffffffffffffffffffffffff1690508073ffffffffffffffffffffffffffffffffffffffff163373ffffffffffffffffffffffffffffffffffffffff1614612e055760025f8581526020019081526020015f205f8273ffffffffffffffffffffffffffffffffffffffff1673ffffffffffffffffffffffffffffffffffffffff1681526020019081526020015f205f815480929190612c5c906157f8565b91905055508073ffffffffffffffffffffffffffffffffffffffff16847f2a791377fc5eeec8a3c10b3ad4baf3687eb8dd74bdd79dbd63d29070d4c687c760025f8881526020019081526020015f205f8573ffffffffffffffffffffffffffffffffffffffff1673ffffffffffffffffffffffffffffffffffffffff1681526020019081526020015f2054604051612cf49190614de9565b60405180910390a36002805f8681526020019081526020015f205f8373ffffffffffffffffffffffffffffffffffffffff1673ffffffffffffffffffffffffffffffffffffffff1681526020019081526020015f205410612d6057612d598482613d2e565b5050612ffb565b612d6984613e61565b8073ffffffffffffffffffffffffffffffffffffffff16847f483c4ee11e1d637eff6c2e536ba48554bb3f35d6895431e9bc8e02111e4c6f7060025f8881526020019081526020015f205f8573ffffffffffffffffffffffffffffffffffffffff1673ffffffffffffffffffffffffffffffffffffffff1681526020019081526020015f2054604051612dfc9190614de9565b60405180910390a35b505b806003015f9054906101000a900473ffffffffffffffffffffffffffffffffffffffff1673ffffffffffffffffffffffffffffffffffffffff163373ffffffffffffffffffffffffffffffffffffffff1614612e98576040517f08c379a0000000000000000000000000000000000000000000000000000000008152600401612e8f9061598f565b60405180910390fd5b60065f8481526020019081526020015f2054421115612eec576040517f08c379a0000000000000000000000000000000000000000000000000000000008152600401612ee3906159f7565b60405180910390fd5b612ef68383614031565b612f35576040517f08c379a0000000000000000000000000000000000000000000000000000000008152600401612f2c90615a5f565b60405180910390fd5b5f828260020154612f4691906153e4565b9050808260020181905550837f575f1f76ee2294a7f954705e84e987596a8f2a7c3e162aea6ef8e0690cc25142338584604051612f8593929190615a7d565b60405180910390a25f8103612fee57600180811115612fa757612fa6614c17565b5b826001015f9054906101000a900460ff166001811115612fca57612fc9614c17565b5b03612fde57612fd98433613d2e565b612fe9565b612fe88433614265565b5b612ff8565b612ff784613e61565b5b50505b5050565b6004602052815f5260405f208181548110613018575f80fd5b905f5260205f20015f915091509054906101000a900473ffffffffffffffffffffffffffffffffffffffff1681565b61304f613352565b603c81101580156130625750610e108111155b6130a1576040517f08c379a000000000000000000000000000000000000000000000000000000000815260040161309890615afc565b60405180910390fd5b8060108190555050565b5f5f60605f60035f8681526020019081526020015f20604051806101200160405290815f8201548152602001600182015f9054906101000a900460ff1660018111156130fa576130f9614c17565b5b600181111561310c5761310b614c17565b5b815260200160028201548152602001600382015f9054906101000a900473ffffffffffffffffffffffffffffffffffffffff1673ffffffffffffffffffffffffffffffffffffffff1673ffffffffffffffffffffffffffffffffffffffff1681526020016003820160149054906101000a900460ff16600281111561319457613193614c17565b5b60028111156131a6576131a5614c17565b5b81526020016004820154815260200160058201548152602001600682015f9054906101000a900473ffffffffffffffffffffffffffffffffffffffff1673ffffffffffffffffffffffffffffffffffffffff1673ffffffffffffffffffffffffffffffffffffffff1681526020016006820160149054906101000a900460ff161515151581525050905080610100015160045f8781526020019081526020015f2080549050604051806060016040528060278152602001615e4e60279139935093509350509193909250565b60115f9054906101000a900460ff16156132c1576040517f08c379a00000000000000000000000000000000000000000000000000000000081526004016132b8906156a2565b60405180910390fd5b6132cb813361451d565b50565b6132d6613352565b5f73ffffffffffffffffffffffffffffffffffffffff168173ffffffffffffffffffffffffffffffffffffffff1603613346575f6040517f1e4fbdf700000000000000000000000000000000000000000000000000000000815260040161333d9190615139565b60405180910390fd5b61334f81613c6b565b50565b61335a614537565b73ffffffffffffffffffffffffffffffffffffffff16613378612012565b73ffffffffffffffffffffffffffffffffffffffff16146133d75761339b614537565b6040517f118cdaa70000000000000000000000000000000000000000000000000000000081526004016133ce9190615139565b60405180910390fd5b565b60025f5403613414576040517f3ee5aeb500000000000000000000000000000000000000000000000000000000815260040160405180910390fd5b60025f81905550565b5f825f3373ffffffffffffffffffffffffffffffffffffffff1673ffffffffffffffffffffffffffffffffffffffff1681526020019081526020015f20905081815f015410156134a2576040517f08c379a000000000000000000000000000000000000000000000000000000000815260040161349990615b64565b60405180910390fd5b5f6134d4826040518060600160405290815f82015481526020016001820154815260200160028201548152505061453e565b905080826002015f8282546134e99190615528565b9250508190555082825f015f82825461350291906153e4565b9250508190555042826001018190555050505050565b60015f81905550565b5f815f3373ffffffffffffffffffffffffffffffffffffffff1673ffffffffffffffffffffffffffffffffffffffff1681526020019081526020015f2090505f613592826040518060600160405290815f82015481526020016001820154815260200160028201548152505061453e565b90505f8183600201546135a59190615528565b90505f81116135e9576040517f08c379a00000000000000000000000000000000000000000000000000000000081526004016135e090615bcc565b60405180910390fd5b5f83600201819055504283600101819055505f3373ffffffffffffffffffffffffffffffffffffffff1682604051613620906154ac565b5f6040518083038185875af1925050503d805f811461365a576040519150601f19603f3d011682016040523d82523d5f602084013e61365f565b606091505b50509050806136a3576040517f08c379a000000000000000000000000000000000000000000000000000000000815260040161369a9061550a565b60405180910390fd5b5050505050565b5f81116136ec576040517f08c379a00000000000000000000000000000000000000000000000000000000081526004016136e390615c34565b60405180910390fd5b5f825f3373ffffffffffffffffffffffffffffffffffffffff1673ffffffffffffffffffffffffffffffffffffffff1681526020019081526020015f2090505f815f01541115613786575f613768826040518060600160405290815f82015481526020016001820154815260200160028201548152505061453e565b905080826002015f82825461377d9190615528565b92505081905550505b34815f015f8282546137989190615528565b92505081905550428160010181905550505050565b5f5f60605f5f5f5f5f8a5f8b81526020019081526020015f20604051806101200160405290815f8201548152602001600182015f9054906101000a900460ff1660018111156137ff576137fe614c17565b5b600181111561381157613810614c17565b5b815260200160028201548152602001600382015f9054906101000a900473ffffffffffffffffffffffffffffffffffffffff1673ffffffffffffffffffffffffffffffffffffffff1673ffffffffffffffffffffffffffffffffffffffff1681526020016003820160149054906101000a900460ff16600281111561389957613898614c17565b5b60028111156138ab576138aa614c17565b5b81526020016004820154815260200160058201548152602001600682015f9054906101000a900473ffffffffffffffffffffffffffffffffffffffff1673ffffffffffffffffffffffffffffffffffffffff1673ffffffffffffffffffffffffffffffffffffffff1681526020016006820160149054906101000a900460ff16151515158152505090505f895f8c81526020019081526020015f208054806020026020016040519081016040528092919081815260200182805480156139c357602002820191905f5260205f20905b815f9054906101000a900473ffffffffffffffffffffffffffffffffffffffff1673ffffffffffffffffffffffffffffffffffffffff168152602001906001019080831161397a575b5050505050905081608001518260e00151828461010001516139e5575f6139eb565b84604001515b856101000151866060015187602001516001811115613a0d57613a0c614c17565b5b985098509850985098509850985050509397509397509397909450565b604051806101200160405280888152602001896001811115613a4f57613a4e614c17565b5b81526020015f81526020015f73ffffffffffffffffffffffffffffffffffffffff1681526020015f6002811115613a8957613a88614c17565b5b81526020013481526020013481526020015f73ffffffffffffffffffffffffffffffffffffffff1681526020015f1515815250865f8981526020019081526020015f205f820151815f01556020820151816001015f6101000a81548160ff02191690836001811115613afe57613afd614c17565b5b0217905550604082015181600201556060820151816003015f6101000a81548173ffffffffffffffffffffffffffffffffffffffff021916908373ffffffffffffffffffffffffffffffffffffffff16021790555060808201518160030160146101000a81548160ff02191690836002811115613b7e57613b7d614c17565b5b021790555060a0820151816004015560c0820151816005015560e0820151816006015f6101000a81548173ffffffffffffffffffffffffffffffffffffffff021916908373ffffffffffffffffffffffffffffffffffffffff1602179055506101008201518160060160146101000a81548160ff0219169083151502179055509050505f855f8981526020019081526020015f205f3373ffffffffffffffffffffffffffffffffffffffff1673ffffffffffffffffffffffffffffffffffffffff1681526020019081526020015f2081905550613c618733888787878b886145b0565b5050505050505050565b5f60015f9054906101000a900473ffffffffffffffffffffffffffffffffffffffff1690508160015f6101000a81548173ffffffffffffffffffffffffffffffffffffffff021916908373ffffffffffffffffffffffffffffffffffffffff1602179055508173ffffffffffffffffffffffffffffffffffffffff168173ffffffffffffffffffffffffffffffffffffffff167f8be0079c531659141344cd1fd0a4f28419497f9722a3daafe3b4186f6b6457e060405160405180910390a35050565b5f60045f8481526020019081526020015f20805480602002602001604051908101604052809291908181526020018280548015613dbd57602002820191905f5260205f20905b815f9054906101000a900473ffffffffffffffffffffffffffffffffffffffff1673ffffffffffffffffffffffffffffffffffffffff1681526020019060010190808311613d74575b505050505090505f8273ffffffffffffffffffffffffffffffffffffffff16825f81518110613def57613dee6155c3565b5b602002602001015173ffffffffffffffffffffffffffffffffffffffff1614613e3257815f81518110613e2557613e246155c3565b5b6020026020010151613e4f565b81600181518110613e4657613e456155c3565b5b60200260200101515b9050613e5b8482614265565b50505050565b5f60045f8381526020019081526020015f20805480602002602001604051908101604052809291908181526020018280548015613ef057602002820191905f5260205f20905b815f9054906101000a900473ffffffffffffffffffffffffffffffffffffffff1673ffffffffffffffffffffffffffffffffffffffff1681526020019060010190808311613ea7575b505050505090505f60035f8481526020019081526020015f206003015f9054906101000a900473ffffffffffffffffffffffffffffffffffffffff1690508073ffffffffffffffffffffffffffffffffffffffff16825f81518110613f5857613f576155c3565b5b602002602001015173ffffffffffffffffffffffffffffffffffffffff1614613f9b57815f81518110613f8e57613f8d6155c3565b5b6020026020010151613fb8565b81600181518110613faf57613fae6155c3565b5b60200260200101515b60035f8581526020019081526020015f206003015f6101000a81548173ffffffffffffffffffffffffffffffffffffffff021916908373ffffffffffffffffffffffffffffffffffffffff160217905550601054426140179190615528565b60065f8581526020019081526020015f2081905550505050565b5f5f8203614041575f905061425f565b5f60035f8581526020019081526020015f20604051806101200160405290815f8201548152602001600182015f9054906101000a900460ff16600181111561408c5761408b614c17565b5b600181111561409e5761409d614c17565b5b815260200160028201548152602001600382015f9054906101000a900473ffffffffffffffffffffffffffffffffffffffff1673ffffffffffffffffffffffffffffffffffffffff1673ffffffffffffffffffffffffffffffffffffffff1681526020016003820160149054906101000a900460ff16600281111561412657614125614c17565b5b600281111561413857614137614c17565b5b81526020016004820154815260200160058201548152602001600682015f9054906101000a900473ffffffffffffffffffffffffffffffffffffffff1673ffffffffffffffffffffffffffffffffffffffff1673ffffffffffffffffffffffffffffffffffffffff1681526020016006820160149054906101000a900460ff16151515158152505090505f60018111156141d5576141d4614c17565b5b816020015160018111156141ec576141eb614c17565b5b036141fd576001831491505061425f565b5f6064600a8360400151614211919061583f565b61421b91906158ad565b90505f810361422957600190505b5f6064601e846040015161423d919061583f565b61424791906158ad565b90508185101580156142595750808511155b93505050505b92915050565b5f60035f8481526020019081526020015f20905060028160030160146101000a81548160ff021916908360028111156142a1576142a0614c17565b5b021790555081816006015f6101000a81548173ffffffffffffffffffffffffffffffffffffffff021916908373ffffffffffffffffffffffffffffffffffffffff1602179055505f6064600c5483600501546142fd919061583f565b61430791906158ad565b90505f81836005015461431a91906153e4565b90505f61432685610fd8565b90505f60648284614337919061583f565b61434191906158ad565b90508060075f8873ffffffffffffffffffffffffffffffffffffffff1673ffffffffffffffffffffffffffffffffffffffff1681526020019081526020015f205f82825461438f9190615528565b9250508190555060085f8773ffffffffffffffffffffffffffffffffffffffff1673ffffffffffffffffffffffffffffffffffffffff1681526020019081526020015f205f8154809291906143e3906157f8565b919050555083600d5f8282546143f99190615528565b925050819055505f73ffffffffffffffffffffffffffffffffffffffff16601160019054906101000a900473ffffffffffffffffffffffffffffffffffffffff1673ffffffffffffffffffffffffffffffffffffffff16146144da57601160019054906101000a900473ffffffffffffffffffffffffffffffffffffffff1673ffffffffffffffffffffffffffffffffffffffff1663d33a24ec886040518263ffffffff1660e01b81526004016144b09190614de9565b5f604051808303815f87803b1580156144c7575f5ffd5b505af19250505080156144d8575060015b505b867ff5d92df6ae1a0b46d0a0c57c2e1da0d75d7591d2804ad086cb1e27ba67de7aaf878360405161450c929190615c52565b60405180910390a250505050505050565b61453382826003600560046009600260066145b0565b5050565b5f33905090565b5f5f6103e890505f835f015103614558575f9150506145ab565b5f83602001514261456991906153e4565b90505f61271083865f015161457e919061583f565b61458891906158ad565b90506301e13380828261459b919061583f565b6145a591906158ad565b93505050505b919050565b5f865f8a81526020019081526020015f2090505f60028111156145d6576145d5614c17565b5b8160030160149054906101000a900460ff1660028111156145fa576145f9614c17565b5b1461463a576040517f08c379a000000000000000000000000000000000000000000000000000000000815260040161463190615cc3565b60405180910390fd5b80600401543414614680576040517f08c379a000000000000000000000000000000000000000000000000000000000815260040161467790615d2b565b60405180910390fd5b845f8a81526020019081526020015f2088908060018154018082558091505060019003905f5260205f20015f9091909190916101000a81548173ffffffffffffffffffffffffffffffffffffffff021916908373ffffffffffffffffffffffffffffffffffffffff16021790555034816005015f8282546147019190615528565b925050819055506001865f8b81526020019081526020015f205f8a73ffffffffffffffffffffffffffffffffffffffff1673ffffffffffffffffffffffffffffffffffffffff1681526020019081526020015f205f6101000a81548160ff021916908315150217905550835f8973ffffffffffffffffffffffffffffffffffffffff1673ffffffffffffffffffffffffffffffffffffffff1681526020019081526020015f205f8154809291906147b7906157f8565b91905055505f835f8b81526020019081526020015f205f8a73ffffffffffffffffffffffffffffffffffffffff1673ffffffffffffffffffffffffffffffffffffffff1681526020019081526020015f20819055506002855f8b81526020019081526020015f208054905003614834576148338988878561483f565b5b505050505050505050565b5f835f8681526020019081526020015f2090505f61012c90505f61487487846001015f9054906101000a900460ff168761497d565b905080836002018190555060018360060160146101000a81548160ff02191690831515021790555060018360030160146101000a81548160ff021916908360028111156148c4576148c3614c17565b5b0217905550845f8881526020019081526020015f205f815481106148eb576148ea6155c3565b5b905f5260205f20015f9054906101000a900473ffffffffffffffffffffffffffffffffffffffff16836003015f6101000a81548173ffffffffffffffffffffffffffffffffffffffff021916908373ffffffffffffffffffffffffffffffffffffffff16021790555081426149609190615528565b845f8981526020019081526020015f208190555050505050505050565b5f5f7fabcdef1234567890abcdef1234567890abcdef1234567890abcdef123456789090505f835f8781526020019081526020015f20805480602002602001604051908101604052809291908181526020018280548015614a3057602002820191905f5260205f20905b815f9054906101000a900473ffffffffffffffffffffffffffffffffffffffff1673ffffffffffffffffffffffffffffffffffffffff16815260200190600101908083116149e7575b505050505090505f424488845f81518110614a4e57614a4d6155c3565b5b602002602001015185600181518110614a6a57614a696155c3565b5b602002602001015187604051602001614a8896959493929190615dae565b604051602081830303815290604052805190602001205f1c90505f6001811115614ab557614ab4614c17565b5b866001811115614ac857614ac7614c17565b5b14614aeb57607881614ada9190615e1d565b6050614ae69190615528565b614b05565b602381614af89190615e1d565b600f614b049190615528565b5b93505050509392505050565b6040518061012001604052805f81526020015f6001811115614b3657614b35614c17565b5b81526020015f81526020015f73ffffffffffffffffffffffffffffffffffffffff1681526020015f6002811115614b7057614b6f614c17565b5b81526020015f81526020015f81526020015f73ffffffffffffffffffffffffffffffffffffffff1681526020015f151581525090565b5f5ffd5b5f819050919050565b614bbc81614baa565b8114614bc6575f5ffd5b50565b5f81359050614bd781614bb3565b92915050565b5f60208284031215614bf257614bf1614ba6565b5b5f614bff84828501614bc9565b91505092915050565b614c1181614baa565b82525050565b7f4e487b71000000000000000000000000000000000000000000000000000000005f52602160045260245ffd5b60028110614c5557614c54614c17565b5b50565b5f819050614c6582614c44565b919050565b5f614c7482614c58565b9050919050565b614c8481614c6a565b82525050565b5f73ffffffffffffffffffffffffffffffffffffffff82169050919050565b5f614cb382614c8a565b9050919050565b614cc381614ca9565b82525050565b60038110614cda57614cd9614c17565b5b50565b5f819050614cea82614cc9565b919050565b5f614cf982614cdd565b9050919050565b614d0981614cef565b82525050565b5f8115159050919050565b614d2381614d0f565b82525050565b5f61012082019050614d3d5f83018c614c08565b614d4a602083018b614c7b565b614d57604083018a614c08565b614d646060830189614cba565b614d716080830188614d00565b614d7e60a0830187614c08565b614d8b60c0830186614c08565b614d9860e0830185614cba565b614da6610100830184614d1a565b9a9950505050505050505050565b5f606082019050614dc75f830186614c08565b614dd46020830185614c08565b614de16040830184614c08565b949350505050565b5f602082019050614dfc5f830184614c08565b92915050565b614e0b81614d0f565b8114614e15575f5ffd5b50565b5f81359050614e2681614e02565b92915050565b5f60208284031215614e4157614e40614ba6565b5b5f614e4e84828501614e18565b91505092915050565b614e6081614ca9565b8114614e6a575f5ffd5b50565b5f81359050614e7b81614e57565b92915050565b5f5f60408385031215614e9757614e96614ba6565b5b5f614ea485828601614bc9565b9250506020614eb585828601614e6d565b9150509250929050565b5f602082019050614ed25f830184614d1a565b92915050565b5f60208284031215614eed57614eec614ba6565b5b5f614efa84828501614e6d565b91505092915050565b5f81519050919050565b5f82825260208201905092915050565b8281835e5f83830152505050565b5f601f19601f8301169050919050565b5f614f4582614f03565b614f4f8185614f0d565b9350614f5f818560208601614f1d565b614f6881614f2b565b840191505092915050565b5f60e082019050614f865f83018a614c08565b614f936020830189614d1a565b8181036040830152614fa58188614f3b565b9050614fb46060830187614c08565b8181036080830152614fc68186614f3b565b9050614fd560a0830185614c08565b614fe260c0830184614c08565b98975050505050505050565b5f81519050919050565b5f82825260208201905092915050565b5f819050602082019050919050565b61502081614ca9565b82525050565b5f6150318383615017565b60208301905092915050565b5f602082019050919050565b5f61505382614fee565b61505d8185614ff8565b935061506883615008565b805f5b8381101561509857815161507f8882615026565b975061508a8361503d565b92505060018101905061506b565b5085935050505092915050565b5f6020820190508181035f8301526150bd8184615049565b905092915050565b5f60e0820190506150d85f83018a614d00565b6150e56020830189614cba565b81810360408301526150f78188615049565b90506151066060830187614c08565b6151136080830186614d1a565b61512060a0830185614cba565b61512d60c0830184614c08565b98975050505050505050565b5f60208201905061514c5f830184614cba565b92915050565b61515b81614baa565b82525050565b61516a81614c6a565b82525050565b61517981614cef565b82525050565b61518881614d0f565b82525050565b61012082015f8201516151a35f850182615152565b5060208201516151b66020850182615161565b5060408201516151c96040850182615152565b5060608201516151dc6060850182615017565b5060808201516151ef6080850182615170565b5060a082015161520260a0850182615152565b5060c082015161521560c0850182615152565b5060e082015161522860e0850182615017565b5061010082015161523d61010085018261517f565b50505050565b5f610120820190506152575f83018461518e565b92915050565b5f6040820190506152705f830185614c08565b61527d6020830184614c08565b9392505050565b5f60a0820190506152975f830188614c08565b6152a46020830187614c08565b6152b16040830186614c08565b6152be6060830185614c08565b6152cb6080830184614c08565b9695505050505050565b5f5f604083850312156152eb576152ea614ba6565b5b5f6152f885828601614bc9565b925050602061530985828601614bc9565b9150509250929050565b5f6060820190506153265f830186614d1a565b6153336020830185614c08565b81810360408301526153458184614f3b565b9050949350505050565b7f546f6f20686967680000000000000000000000000000000000000000000000005f82015250565b5f615383600883614f0d565b915061538e8261534f565b602082019050919050565b5f6020820190508181035f8301526153b081615377565b9050919050565b7f4e487b71000000000000000000000000000000000000000000000000000000005f52601160045260245ffd5b5f6153ee82614baa565b91506153f983614baa565b9250828203905081811115615411576154106153b7565b5b92915050565b7f496e73756666696369656e7400000000000000000000000000000000000000005f82015250565b5f61544b600c83614f0d565b915061545682615417565b602082019050919050565b5f6020820190508181035f8301526154788161543f565b9050919050565b5f81905092915050565b50565b5f6154975f8361547f565b91506154a282615489565b5f82019050919050565b5f6154b68261548c565b9150819050919050565b7f4661696c656400000000000000000000000000000000000000000000000000005f82015250565b5f6154f4600683614f0d565b91506154ff826154c0565b602082019050919050565b5f6020820190508181035f830152615521816154e8565b9050919050565b5f61553282614baa565b915061553d83614baa565b9250828201905080821115615555576155546153b7565b5b92915050565b7f4e6f2062616c616e6365000000000000000000000000000000000000000000005f82015250565b5f61558f600a83614f0d565b915061559a8261555b565b602082019050919050565b5f6020820190508181035f8301526155bc81615583565b9050919050565b7f4e487b71000000000000000000000000000000000000000000000000000000005f52603260045260245ffd5b7f4e6f2066656573000000000000000000000000000000000000000000000000005f82015250565b5f615624600783614f0d565b915061562f826155f0565b602082019050919050565b5f6020820190508181035f83015261565181615618565b9050919050565b7f50617573656400000000000000000000000000000000000000000000000000005f82015250565b5f61568c600683614f0d565b915061569782615658565b602082019050919050565b5f6020820190508181035f8301526156b981615680565b9050919050565b7f46656520726571756972656400000000000000000000000000000000000000005f82015250565b5f6156f4600c83614f0d565b91506156ff826156c0565b602082019050919050565b5f6020820190508181035f830152615721816156e8565b9050919050565b7f4e6f7420616374697665000000000000000000000000000000000000000000005f82015250565b5f61575c600a83614f0d565b915061576782615728565b602082019050919050565b5f6020820190508181035f83015261578981615750565b9050919050565b7f4e6f2074696d656f7574000000000000000000000000000000000000000000005f82015250565b5f6157c4600a83614f0d565b91506157cf82615790565b602082019050919050565b5f6020820190508181035f8301526157f1816157b8565b9050919050565b5f61580282614baa565b91507fffffffffffffffffffffffffffffffffffffffffffffffffffffffffffffffff8203615834576158336153b7565b5b600182019050919050565b5f61584982614baa565b915061585483614baa565b925082820261586281614baa565b91508282048414831517615879576158786153b7565b5b5092915050565b7f4e487b71000000000000000000000000000000000000000000000000000000005f52601260045260245ffd5b5f6158b782614baa565b91506158c283614baa565b9250826158d2576158d1615880565b5b828204905092915050565b7f4e6f206e756d62657200000000000000000000000000000000000000000000005f82015250565b5f615911600983614f0d565b915061591c826158dd565b602082019050919050565b5f6020820190508181035f83015261593e81615905565b9050919050565b7f4e6f74207475726e0000000000000000000000000000000000000000000000005f82015250565b5f615979600883614f0d565b915061598482615945565b602082019050919050565b5f6020820190508181035f8301526159a68161596d565b9050919050565b7f54696d656f7574000000000000000000000000000000000000000000000000005f82015250565b5f6159e1600783614f0d565b91506159ec826159ad565b602082019050919050565b5f6020820190508181035f830152615a0e816159d5565b9050919050565b7f496e76616c6964000000000000000000000000000000000000000000000000005f82015250565b5f615a49600783614f0d565b9150615a5482615a15565b602082019050919050565b5f6020820190508181035f830152615a7681615a3d565b9050919050565b5f606082019050615a905f830186614cba565b615a9d6020830185614c08565b615aaa6040830184614c08565b949350505050565b7f496e76616c69642072616e6765000000000000000000000000000000000000005f82015250565b5f615ae6600d83614f0d565b9150615af182615ab2565b602082019050919050565b5f6020820190508181035f830152615b1381615ada565b9050919050565b7f496e73756666696369656e74207374616b656420616d6f756e740000000000005f82015250565b5f615b4e601a83614f0d565b9150615b5982615b1a565b602082019050919050565b5f6020820190508181035f830152615b7b81615b42565b9050919050565b7f4e6f2072657761726473000000000000000000000000000000000000000000005f82015250565b5f615bb6600a83614f0d565b9150615bc182615b82565b602082019050919050565b5f6020820190508181035f830152615be381615baa565b9050919050565b7f4d757374207374616b65000000000000000000000000000000000000000000005f82015250565b5f615c1e600a83614f0d565b9150615c2982615bea565b602082019050919050565b5f6020820190508181035f830152615c4b81615c12565b9050919050565b5f604082019050615c655f830185614cba565b615c726020830184614c08565b9392505050565b7f43616e6e6f74206a6f696e0000000000000000000000000000000000000000005f82015250565b5f615cad600b83614f0d565b9150615cb882615c79565b602082019050919050565b5f6020820190508181035f830152615cda81615ca1565b9050919050565b7f57726f6e672066656500000000000000000000000000000000000000000000005f82015250565b5f615d15600983614f0d565b9150615d2082615ce1565b602082019050919050565b5f6020820190508181035f830152615d4281615d09565b9050919050565b5f819050919050565b615d63615d5e82614baa565b615d49565b82525050565b5f8160601b9050919050565b5f615d7f82615d69565b9050919050565b5f615d9082615d75565b9050919050565b615da8615da382614ca9565b615d86565b82525050565b5f615db98289615d52565b602082019150615dc98288615d52565b602082019150615dd98287615d52565b602082019150615de98286615d97565b601482019150615df98285615d97565b601482019150615e098284615d52565b602082019150819050979650505050505050565b5f615e2782614baa565b9150615e3283614baa565b925082615e4257615e41615880565b5b82820690509291505056fe426f746820706c6179657273202b20626c6f636b2064617461202b20637573746f6d2073616c7446494e414c205741524e494e47202d204e6578742074696d656f7574203d204c4f53532147616d652061637469766520285741524e494e473a20312074696d656f7574207573656429a2646970667358221220f1175e27e5787903948390a7916cc4b1a03ec4c32f46a6dd2496160d521cac8864736f6c634300081c0033","linkReferences":{}},"methodIdentifiers":{"MAX_TIMEOUTS()":"b79fdcc5","balances(address)":"27e235e3","claimRewards()":"372500ab","createQuickDraw()":"85682a5e","createStrategic()":"55e46c89","emergency()":"caa6fea4","fees()":"9af1d35a","gameCounter()":"2e0be39a","gamePlayers(uint256,uint256)":"dfefef9f","games(uint256)":"117a5b90","getBonus(address)":"3a740a63","getGame(uint256)":"a2f77bcc","getGameForSpectators(uint256)":"4d389e78","getPlatformStats()":"136d8883","getPlayerView(uint256)":"3d2a9026","getPlayers(uint256)":"460e2049","getStats(address)":"c23f85d6","getTimeoutStatus(uint256,address)":"bcd9e0c3","handleTimeout(uint256)":"b4f36264","isGameBettable(uint256)":"5f5e3e91","isInGame(uint256,address)":"3a9a3073","isOnFinalWarning(uint256,address)":"1c07ec9d","isTimedOut(uint256)":"cc8ac988","joinGame(uint256)":"efaa55a0","makeMove(uint256,uint256)":"dea9456d","owner()":"8da5cb5b","paused()":"5c975abb","platformFee()":"26232a2e","played(address)":"1cc60908","playerTimeouts(uint256,address)":"53226bd0","renounceOwnership()":"715018a6","setPaused(bool)":"16c38b3c","setPlatformFee(uint256)":"12e8e2c3","setSpectatorContract(address)":"b6f5b3a6","setStakingAPY(uint256)":"25d3f8cb","setTimeLimit(uint256)":"e2889c82","spectatorContract()":"88b7225e","stake()":"3a4b66f1","staking(address)":"d764b78f","stakingAPY()":"1531b62a","timeLimit()":"c08d1fe5","totalStaked()":"817b1cd2","transferOwnership(address)":"f2fde38b","turnDeadlines(uint256)":"c3cb4e7a","unstake(uint256)":"2e17de78","verifyFairness(uint256)":"ed6fe707","wins(address)":"8047a97a","withdraw()":"3ccfd60b","withdrawFees()":"476343ee"},"id":21}